:020000040800F2
:100000000000022021400008990700089B07000813
:100010009D0700089F070008A107000800000000D6
:10002000000000000000000000000000A30700081E
:10003000A507000800000000A7070008A90700089E
:1000400075400008754000087540000875400008BC
:1000500075400008754000087540000875400008AC
:10006000754000087540000875400008754000089C
:10007000754000087540000875400008754000088C
:10008000754000087540000875400008754000087C
:10009000754000087540000875400008754000086C
:1000A000754000087540000875400008754000085C
:1000B000754000087540000875400008754000084C
:1000C000754000087540000875400008754000083C
:1000D000754000087540000875400008754000082C
:1000E00075400008754000080000000075400008D9
:1000F000754000087540000875400008754000080C
:1001000075400008754000087540000875400008FB
:1001100075400008754000087540000875400008EB
:1001200075400008754000087540000875400008DB
:1001300075400008754000087540000875400008CB
:1001400000000000000000000000000000000000AF
:1001500075400008754000087540000875400008AB
:10016000754000087540000875400008754000089B
:10017000754000087540000875400008754000088B
:10018000754000087540000875400008754000087B
:10019000754000087540000875400008754000086B
:1001A000754000087540000875400008754000085B
:1001B000B107000875400008754000087540000848
:1001C000754000087540000875400008754000083B
:1001D000754000087540000875400008754000082B
:1001E000754000087540000875400008754000081B
:1001F000754000087540000875400008754000080B
:1002000075400008754000087540000875400008FA
:1002100075400008754000087540000875400008EA
:100220007540000875400008C10700080000000084
:100230007540000875400008000000007540000887
:1002400075400008754000087540000875400008BA
:1002500075400008754000087540000875400008AA
:10026000754000087540000875400008754000089A
:100270007540000875400008754000080000000047
:100280007540000875400008754000080000000037
:080290000000000075400008A9
:1002980010B5054C237833B9044B13B10448AFF3B8
:1002A80000800123237010BD14000020000000000E
:1002B800D040000808B5034B1BB103490348AFF30E
:1002C800008008BD0000000018000020D040000891
:1002D80010B584B00024009401940294039402F0B1
:1002E8009DFA01238DF800308DF8014001941F22FA
:1002F8008DF8082087228DF809208DF80A408DF89E
:100308000B408DF80C308DF80D308DF80E408DF8BF
:100318000F40684602F0A4FA042002F08FFA04B0F5
:1003280010BD72B6FEE7000000B59DB04C2200215A
:1003380009A803F0C1FE2022002101A803F0BCFE99
:10034800022002F0D9F900230093254B9A6942F460
:1003580040429A619B6903F440430093214BDA6A57
:1003680042F00102DA62DB6A03F001030093009BAA
:100378001B4B9B6913F4005FFAD0012209924FF4DA
:1003880080330A9302231293139314923C221592FA
:100398001693179318930C23199300231A931B93FE
:1003A80009A800F023FAB8B93F2301930323029365
:1003B80000230393082304934023059306934FF4E3
:1003C80080620792089304210DEB010000F062FEA1
:1003D80020B91DB05DF804FBFFF7A3FFFFF7A1FFED
:1003E800004802580004005808B5FFF771FF02F0F2
:1003F80085FAFFF799FF00F00BF800F071F800F0AC
:100408008BF800F075F9012003F0D5FDFBE700003B
:1004180030B58DB000240794089409940A940B947D
:100428002D4BD3F8E02042F01002C3F8E020D3F8B7
:10043800E02002F010020192019AD3F8E02042F085
:100448000402C3F8E020D3F8E02002F0040202928C
:10045800029AD3F8E02042F08002C3F8E020D3F8F3
:10046800E02002F080020392039AD3F8E02042F0E1
:100478004002C3F8E020D3F8E02002F040020492E2
:10048800049AD3F8E02042F02002C3F8E020D3F821
:10049800E02002F020020592059AD3F8E02042F00D
:1004A8000802C3F8E020D3F8E03003F0080306930D
:1004B800069B0A4D22463821284601F0CDFE3823F6
:1004C80007930123089309940A9407A9284601F081
:1004D800CDFD0DB030BD00BF0044025800100258D9
:1004E80000B583B00B4BD3F8D42042F00102C3F817
:1004F800D420D3F8D43003F001030193019B0022E8
:1005080011467A2002F034F97A2002F063F903B038
:100518005DF804FB0044025808B50B480B4B036018
:1005280001234360202383600023C36017220261F4
:1005380043618361C361036202F056FF00B908BDDD
:10054800FFF7EFFEFBE700BF9C00002000500052C1
:10055800F0B5BDB0044600213791389139913A91F0
:100568003B91C02206A803F0A7FD2268584B9A4287
:1005780001D03DB0F0BD4FF000720023CDE9062355
:100588000023199306A800F0DBFF002840F09680AE
:10059800504BD3F8D42042F48042C3F8D420D3F887
:1005A800D42002F480420192019AD3F8E02042F06C
:1005B8001002C3F8E020D3F8E02002F01002029203
:1005C800029AD3F8E02042F04002C3F8E020D3F8C2
:1005D800E02002F040020392039AD3F8E02042F0B0
:1005E8002002C3F8E020D3F8E02002F020020492B1
:1005F800049AD3F8E02042F00802C3F8E020D3F8C8
:10060800E03003F008030593059B04233793022683
:100618003896002539953A9509273B9737A92E48EA
:1006280001F024FD40233793389639953A950A23EB
:100638003B9337A9294801F019FD4FF4806337939C
:10064800389639953A953B9737A9254801F00EFD1C
:100658004FF460533793389639953A953B9737A9B5
:10066800204801F003FD2048204B03601623436017
:100678008560C5600561466108238361C5610562BF
:100688004FF00073436220238362C56205634563AC
:10069800856301F087FEA0B900221146124801F0D7
:1006A800B1FE88B9104BE3631C64002211465C203C
:1006B80002F05EF85C2002F08DF85AE7FFF731FE91
:1006C80066E7FFF72EFEE7E7FFF72BFEEAE700BF36
:1006D80000500052004402580010025800180258F6
:1006E80000140258000C025830000020400000524C
:1006F80000B589B0002304930593069307930193EB
:100708000293039315484FF080420260C72242606B
:1007180083604FF0FF32C2600361836102F06CFFB7
:1007280090B94FF48053049304A90C4802F0A0FF39
:1007380068B900230193039301A9084803F034F82A
:1007480040B909B05DF804FBFFF7EBFDE9E7FFF7F7
:10075800E8FDEEE7FFF7E5FDF3E700BFE80000205E
:100768000368B3F1804F00D0704782B0074BD3F8CD
:10077800E82042F00102C3F8E820D3F8E83003F09B
:1007880001030193019B02B0704700BF0044025867
:10079800FEE7FEE7FEE7FEE7FEE7704770477047B3
:1007A80008B502F0D9F808BD08B5024802F0A4FC63
:1007B80008BD00BF9C00002008B5024801F0C2FE39
:1007C80008BD00BF3000002082B0074BD3F8F420EA
:1007D80042F00202C3F8F420D3F8F43003F0020325
:1007E8000193019B02B0704700440258002800F0B2
:1007F800398338B50446036813F0010F25D0A74A9A
:10080800136903F03803926A102B15D0182B0FD0F8
:100818006368B3F5803F3FD0002B53D19F4B1A68D4
:1008280022F480321A601A6822F480221A6038E0B2
:1008380002F00302022AEBD1984B1B6813F4003F25
:1008480003D06368002B00F00F83236813F0020FB6
:1008580000F0A180914A1369926A13F038035AD0C4
:10086800182B55D0E368002B00F0DE808B490A680E
:1008780022F0190213430B6002F07AF80546874B01
:100888001B6813F0040F40F0AD8002F071F8401BB4
:100898000228F4D90320EEE2804A136843F4803337
:1008A800136063682BB302F063F805467B4B1B6843
:1008B80013F4003FC9D102F05BF8401B6428F5D956
:1008C8000320D8E2B3F5A02F09D0744B1A6822F49C
:1008D80080321A601A6822F480221A60E1E76F4BAE
:1008E8001A6842F480221A601A6842F480321A6048
:1008F800D7E702F03DF80546684B1B6813F4003F44
:10090800A3D002F035F8401B6428F5D90320B2E2E1
:1009180012F0030FA6D1614B1B6813F0040F03D02C
:10092800E368002B00F0A2825C4A136823F01903E5
:10093800E1680B43136002F01BF80546574B1B6830
:1009480013F0040F06D102F013F8401B0228F5D962
:10095800032090E202F026F841F20303984212D8ED
:100968002269402A07D04D494B6823F47C3343EA77
:1009780002334B600FE0494A536823F47C3343F455
:100988000033536007E0454A536823F0FE4321696A
:1009980043EA01635360236813F0100F00F0888066
:1009A8003E4A136903F03803926A082B54D0182B77
:1009B8004ED0E369002B00F0B880384A136843F042
:1009C8008003136001F0D4FF0546344B1B6813F411
:1009D800807F40F0888001F0CBFF401B0228F4D9CB
:1009E800032048E201F0DEFF41F20303984212D8E7
:1009F8002269402A07D029494B6823F47C3343EA0B
:100A080002334B60C7E7254A536823F47C3343F429
:100A180000335360BFE7214A536823F0FE4321693E
:100A280043EA01635360B6E71C4A136823F00103E5
:100A3800136001F09DFF0546184B1B6813F0040F67
:100A4800A9D001F095FF401B0228F5D9032012E236
:100A580002F00302012AACD1104B1B6813F4807F0B
:100A680003D0E369802B40F0038201F09BFF41F241
:100A78000303984214D8226A202A07D007494B68F2
:100A880023F0F84343EA82634B6011E0034A53685A
:100A980023F0F84343F08043536009E000440258D0
:100AA8009A4AD36823F07C53216A43EA0163D360EE
:100AB800236813F0080F60D06369002B49D0934A6C
:100AC800536F43F00103536701F052FF05468F4B04
:100AD8005B6F13F0020F50D101F04AFF401B022850
:100AE800F5D90320C7E101F05DFF41F20303984205
:100AF80012D8226A202A07D084494B6823F0F84389
:100B080043EA82634B60D3E7804A536823F0F84393
:100B180043F080435360CBE77C4AD36823F07C538F
:100B2800216A43EA0163D360C2E7784A136823F075
:100B38008003136001F01CFF0546744B1B6813F417
:100B4800807FB5D001F014FF401B0228F5D903209F
:100B580091E16E4A536F23F00103536701F008FFD8
:100B680005466A4B5B6F13F0020F06D001F000FFD9
:100B7800401B0228F5D903207DE1236813F0200FDC
:100B880029D0A3699BB1614A136843F48053136069
:100B980001F0EEFE05465D4B1B6813F4005F1AD1A9
:100BA80001F0E6FE401B0228F5D9032063E1574A0D
:100BB800136823F48053136001F0DAFE0546534BA3
:100BC8001B6813F4005F06D001F0D2FE401B022818
:100BD800F5D903204FE1236813F0040F21D1636A8C
:100BE800002B00F04781494A126902F03802182A9E
:100BF80000F0EE80022B75D0444A136823F080730E
:100C0800136001F0B5FE0446404B1B6813F0007FEB
:100C180000F0DC8001F0ACFE001B0228F4D90320B0
:100C280029E13B4A136843F48073136001F0A0FE86
:100C38000546374B1B6813F4807F06D101F098FEF8
:100C4800401B6428F5D9032015E1A368012B0AD0BD
:100C58000BBB2E4B1A6F22F001021A671A6F22F093
:100C680004021A6704E0294A136F43F0010313676B
:100C7800A36833B301F07CFE0546244B1B6F13F0C9
:100C8800020FACD101F074FE401B41F28833984248
:100C9800F3D90320EFE0052B09D01C4B1A6F22F083
:100CA80001021A671A6F22F004021A67E0E7174B6D
:100CB8001A6F42F004021A671A6F42F001021A67AB
:100CC800D6E701F055FE0546104B1B6F13F0020FD7
:100CD80085D001F04DFE401B41F288339842F3D98C
:100CE8000320C8E0094A136823F08073136001F0F9
:100CF8003FFE0546054B1B6813F0007F0AD001F044
:100D080037FE401B0228F5D90320B4E000440258FE
:100D1800004802585F4B996A5F4A0A40A16AE06A34
:100D280041EA00110A439A62226B013AC2F30802AF
:100D3800616B0139490289B20A43A16B013909047F
:100D480001F4FE010A43E16B0139090601F0FE4195
:100D58000A431A63DA6A22F00102DA62596B4F4ACF
:100D68000A40A16C42EAC1025A63DA6A22F00C0214
:100D7800216C0A43DA62DA6A22F00202616C0A43E1
:100D8800DA62DA6A42F48032DA62DA6A42F400320B
:100D9800DA62DA6A42F48022DA62DA6A42F001023E
:100DA800DA621A6842F080721A6001F0E1FD0446C6
:100DB800384B1B6813F0007F06D101F0D9FD001BEA
:100DC8000228F5D9032056E0002054E0002052E024
:100DD800304A916A106B012B4ED001F00303A26ACE
:100DE80093424BD1C1F30511E36A994248D1C0F34C
:100DF8000802236B013B9A4244D1C0F34622636B3D
:100E0800013B9A4240D1C0F30642A36B013B9A4290
:100E18003CD1C0F30660E36B013B984238D11D4BCF
:100E28005B6BC3F3CC03A26C9A4201D1002022E091
:100E3800184AD36A23F00103D36201F099FD0546ED
:100E480001F096FDA842FBD0124A516B134B0B40A0
:100E5800A16C43EAC1035363D36A43F00103D3622D
:100E6800002008E001207047012004E0012002E092
:100E7800012000E0002038BD0120FCE70120FAE74E
:100E88000120F8E70120F6E70120F4E70120F2E766
:100E98000120F0E7004402580CFCFFFF0700FFFFA9
:100EA800744B1B6903F03803102B00F0DF80182BFC
:100EB80010D00BB1704870476E4B1B6813F0200FB1
:100EC80000F0D6806B4B1868C0F3C1006B4B23FA57
:100ED80000F0704710B4674A916A01F00301946A00
:100EE800C4F30510D36A03F00103526BC2F3CC02BA
:100EF80003FB02F307EE903AF8EE677A14F47C7F6E
:100F080000F09480012966D0022900F09280E1B1B6
:100F180007EE100AF8EE476A9FED596A86EE267AC0
:100F2800544B1B6BC3F3080306EE903AF8EE666A5F
:100F38009FED546A67EE867A76EEA77AF7EE006A36
:100F480077EEA67A27EE277A61E04A4B1B6813F002
:100F5800200F23D047490A68C2F3C102474BD34048
:100F680007EE103AF8EE476A07EE100AB8EE476A3D
:100F780086EE867A0B6BC3F3080306EE903AF8EE1A
:100F8800666A9FED406A67EE867A76EEA77AF7EE94
:100F9800006A77EEA67A27EE277A38E007EE100A7D
:100FA800F8EE476A9FED386A86EE267A314B1B6B5E
:100FB800C3F3080306EE903AF8EE666A9FED316ACD
:100FC80067EE867A76EEA77AF7EE006A77EEA67A6B
:100FD80027EE277A1BE007EE100AF8EE476A9FED26
:100FE800286A86EE267A234B1B6BC3F3080306EEAA
:100FF800903AF8EE666A9FED236A67EE867A76EE97
:10100800A77AF7EE006A77EEA67A27EE277A194BC9
:101018001B6BC3F34623013307EE903AF8EE677A69
:10102800C7EE276AFCEEE67A17EE900A5DF8044BE5
:10103800704707EE100AF8EE476A9FED146A86EECD
:10104800267A0C4B1B6BC3F3080306EE903AF8EEB6
:10105800666A9FED0C6A67EE867A76EEA77AF7EEF7
:10106800006A77EEA67A27EE277AD0E70848704715
:10107800024870470044025800093D000090D00320
:101088000024744A000000390024744C0024744B76
:101098000024F400002800F0328170B50D460446A3
:1010A8009B4B1B6803F00F038B420BD2984A1368C3
:1010B80023F00F030B431360136803F00F038B42F5
:1010C80040F01F81236813F0040F0CD02269914B64
:1010D8009B6903F070039A4205D98E498B6923F006
:1010E80070031A438A61236813F0080F0CD06269F1
:1010F800884BDB6903F070039A4205D98549CB69AF
:1011080023F070031A43CA61236813F0100F0CD040
:10111800A269804BDB6903F4E0639A4205D97D49F3
:10112800CB6923F4E0631A43CA61236813F0200FE4
:101138000CD0E269774B1B6A03F070039A4205D919
:1011480074490B6A23F070031A430A62236813F088
:10115800020F0CD0E2686F4B9B6903F00F039A42B1
:1011680005D96C498B6923F00F031A438A612368F8
:1011780013F0010F41D0674A936923F47063A168A3
:101188000B4393616368022B0AD0032B27D0012BF2
:101198002CD0604A126812F0040F06D10120ADE08D
:1011A800126812F4003F00F0AE805A490A6922F032
:1011B800070213430B6101F0DBFB0646554B1B6925
:1011C80003F038036268B3EBC20F16D001F0D0FB0E
:1011D800801B41F288339842F0D903208EE04D4AB3
:1011E800126812F0007FE0D1012087E0494A1268B6
:1011F80012F4807FD9D1012080E0236813F0020F18
:101208000CD0E268434B9B6903F00F039A4205D266
:1012180040498B6923F00F031A438A613C4B1B68D2
:1012280003F00F03AB420AD9394A136823F00F03BE
:101238002B431360136803F00F03AB4265D1236897
:1012480013F0040F0CD02269324B9B6903F0700332
:101258009A4205D22F498B6923F070031A438A6199
:10126800236813F0080F0CD062692A4BDB6903F07E
:1012780070039A4205D22749CB6923F070031A43B9
:10128800CA61236813F0100F0CD0A269214BDB69E7
:1012980003F4E0639A4205D21E49CB6923F4E06364
:1012A8001A43CA61236813F0200F0CD0E269194B66
:1012B8001B6A03F070039A4205D216490B6A23F0A1
:1012C80070031A430A62FFF7EBFD12498B69C3F3F7
:1012D8000323114AD35C03F01F03D8408B6903F042
:1012E8000F03D35C03F01F0320FA03F30B4A1360C8
:1012F8000B4B18600B4B186801F0D8FA70BD012031
:1013080070470120FAE70120F8E70120F6E700BF5F
:101318000020005200440258E84000080C00002059
:101328000800002004000020404B9B6A03F00303E0
:10133800032B79D070B505460E463C4A136823F056
:101348008063136001F014FB0446384B1B6813F0EC
:10135800006F06D001F00CFB031B022BF5D903200C
:1013680070BD324B9A6A22F47C32296842EA013213
:101378009A626A68013AC2F30802A9680139490207
:1013880089B20A43E9680139090401F4FE010A43F4
:1013980029690139090601F0FE410A439A63DA6AAC
:1013A80022F0C00269690A43DA62DA6A22F020028E
:1013B800A9690A43DA62DA6A22F01002DA62D96BA2
:1013C8001B4A0A40E96942EAC102DA63DA6A42F072
:1013D8001002DA62C6B91A46DB6A43F40023D36204
:1013E800124A136843F08063136001F0C1FA04469F
:1013F8000E4B1B6813F0006F14D101F0B9FA001BF3
:101408000228F5D90320ABE7012E05D0074AD36A95
:1014180043F40013D362E3E7044AD36A43F4801326
:10142800D362DDE700209BE70120704700440258A3
:101438000700FFFF404B9B6A03F00303032B79D09F
:1014480070B505460E463C4A136823F08053136076
:1014580001F08EFA0446384B1B6813F0005F06D083
:1014680001F086FA031B022BF5D9032070BD324B1D
:101478009A6A22F07C72296842EA01529A626A6882
:10148800013AC2F30802A9680139490289B20A433C
:10149800E9680139090401F4FE010A43296901399F
:1014A800090601F0FE410A431A64DA6A22F440622E
:1014B80069690A43DA62DA6A22F40072A9690A439E
:1014C800DA62DA6A22F48072DA62596C1B4A0A40DC
:1014D800E96942EAC1025A64DA6A42F48072DA625D
:1014E800C6B91A46DB6A43F48003D362124A13680A
:1014F80043F08053136001F03BFA04460E4B1B681F
:1015080013F0005F14D101F033FA001B0228F5D95B
:101518000320ABE7012E05D0074AD36A43F0807356
:10152800D362E3E7044AD36A43F40003D362DDE7F6
:1015380000209BE701207047004402580700FFFF86
:10154800F8B50446016801F000620023134330D067
:10155800836EB3F5001F26D00ED8EBB1B3F5801F0C
:1015680007D102210830FFF7DFFE054645B12E46B8
:1015780021E0012635461EE0B3F5401F09D10025BC
:101588009F4A136D23F44013A16E0B431365002685
:1015980011E0012635460EE0994AD36A43F4003338
:1015A800D3620025ECE702212830FFF743FF054608
:1015B800DCE700263546216801F4807200231343D6
:1015C80014D0A36D042B34D8DFE803F003252C08CE
:1015D80008008B4AD36A43F40033D36265BB884A58
:1015E800136D23F00703A16D0B431365216801F404
:1015F80000720023134331D0E36D802B4FD020D8E5
:10160800002B46D0402B19D1002104F10800FFF728
:101618008BFE05461AE0002104F10800FFF784FE5E
:101628000546DBE7002104F12800FFF703FF054624
:10163800D4E701263546D9E72E46D7E701263546B1
:101648000CE0C02B02D0B3F5807F1FD175BB6C4A6C
:10165800136D23F4E073E16D0B431365216801F406
:1016680080620023134335D0D4F8A830B3F5800F37
:1016780051D020D8002B48D0B3F5001F18D1002135
:1016880004F10800FFF750FE05461AE0012635462A
:10169800E4E75B4AD36A43F40033D362D6E7002118
:1016A80004F12800FFF7C6FE0546CFE72E46D5E72A
:1016B800012635460EE0B3F5C00F02D0B3F5000F92
:1016C80020D17DBB4E4A936D23F46003D4F8A81053
:1016D8000B439365216801F400620023134336D05D
:1016E800D4F8AC30B3F1007F56D020D8002B4DD0C1
:1016F800B3F1807F18D1002104F10800FFF714FE30
:1017080005461AE001263546E4E73D4AD36A43F424
:101718000033D362D5E7002104F12800FFF78AFEE1
:101728000546CEE72E46D5E7012635460FE0B3F14C
:10173800407F02D0B3F1806F25D1002D33D1304ADC
:10174800936D23F0E063D4F8AC100B4393652168E4
:1017580001F00072002313432ED0E36C202B42D0FB
:1017680026D833B1102B20D1254AD36A43F400334D
:10177800D362002D3ED1224AD36C23F03003E16CB2
:101788000B43D36418E001263546E0E71C4AD36AC8
:1017980043F40033D362D0E7002104F12800FFF7B7
:1017A80049FE0546C9E72E46D1E70126354603E03E
:1017B800302BDED001263546216801F48052002303
:1017C80013432ED0236EB3F5005F52D01AD8002BE6
:1017D80049D0B3F5805F0FD1002104F10800FFF76D
:1017E800A3FD054614E0022104F10800FFF79CFD63
:1017F8000546BEE72E46DFE70126354611E000BF65
:1018080000440258B3F5405F02D0B3F5804F27D1AA
:10181800002D35D17D4A136D23F4E043216E0B432F
:101828001365216801F400520023134338D0636E16
:10183800B3F5003F55D028D843B1B3F5803F21D147
:10184800012104F10800FFF76FFD0546002D4FD177
:101858006E4A136D23F4E023616E0B4313651FE09A
:1018680001263546DDE7694AD36A43F40033D3627B
:10187800CEE7002104F12800FFF7DCFD0546C7E7A5
:101888002E46CEE7012635460AE0B3F5802FDDD097
:10189800B3F5A02FDAD0B3F5403FD7D001263546AF
:1018A800216801F480420023134331D0D4F8B030CA
:1018B800B3F1005F49D020D843B1B3F1805F19D1AB
:1018C800012104F10800FFF72FFD0546002D43D143
:1018D8004E4A936D23F0E043D4F8B0100B43936560
:1018E80016E0012104F12800FFF7A4FD0546ADE745
:1018F8002E46D5E7012635460AE0B3F1804FE5D0FC
:10190800B3F1A04FE2D0B3F1405FDFD001263546F6
:10191800216801F400420023134309D0236FB3F177
:10192800805F1BD0B3F1005F26D0E3B101263546B6
:10193800216801F08072002313433FD0A36C032B6E
:1019480038D8DFE803F027223027012104F12800E6
:10195800FFF770FD0546B9E72E46D9E72B4AD36A4B
:1019680043F40033D36275B9284A136D23F040530A
:10197800216F0B431365DBE7012104F10800FFF732
:10198800D3FC0546EFE72E46D2E7204AD36A43F454
:101998000033D3628DB91D4AD36C23F00303A16CC5
:1019A8000B43D3640AE0022104F10800FFF7BCFCF2
:1019B8000546EFE70126354600E02E46216801F48A
:1019C80080020023134323D1216801F00102002380
:1019D800134300F09980E36F282B00F29380DFE82F
:1019E80003F081919191919191917B919191919134
:1019F80091918A91919191919191819191919191E6
:101A08009191819191919191919181000044025815
:101A1800AC4A136843F48073136000F0A9FF0746CB
:101A2800A84B1B6813F4807F05D100F0A1FFC01BF1
:101A38006428F5D90325002D4AD1A34B1B6FD4F890
:101A4800B420534013F4407F0CD09F4B1A6F22F4FC
:101A58004072196F41F480311967196F21F4803190
:101A680019671A67D4F8B430B3F5807F15D08DBBE9
:101A7800D4F8B43003F44072B2F5407F1ED0924AD5
:101A8800136923F47C5313618F490B6FD4F8B42086
:101A9800C2F30B0213430B6796E700F069FF074692
:101AA800894B1B6F13F0020FE1D100F061FFC01BDF
:101AB80041F288339842F3D90325D8E7824802696E
:101AC80022F47C52814901EA131313430361DBE7D3
:101AD8002E4679E72E4677E7012104F10800FFF743
:101AE80023FC0546F5B9784A536D23F03803E16FB6
:101AF8000B43536508E0012104F12800FFF79AFC25
:101B08000546EFE701263546216801F00202002369
:101B1800134323D0A36F052B1CD8DFE803F00B0574
:101B2800140B0B0B2E46EFE7012104F10800FFF719
:101B3800FBFB05468DB9644A536D23F00703A16F7B
:101B48000B4353650AE0012104F12800FFF772FCFA
:101B58000546EFE70126354600E02E46216801F0EC
:101B680004020023134323D0D4F89430052B1BD848
:101B7800DFE803F0090313090909012104F108004A
:101B8800FFF7D2FB054695B94F4A936D23F007033B
:101B9800D4F894100B4393650AE0012104F128005E
:101BA800FFF748FC0546EEE70126354600E02E46DD
:101BB800216801F020020023134328D0D4F8903084
:101BC800B3F1005F44D017D843B1B3F1805F10D1AF
:101BD800002104F10800FFF7A7FB0546002D3ED1C0
:101BE800394A536D23F0E043D4F890100B43536502
:101BF8000DE0012635460AE0B3F1804FEED0B3F18F
:101C0800A04FEBD0B3F1405FE8D0012635462168FC
:101C180001F040020023134331D0D4F89C30B3F5CF
:101C2800006F55D020D843B1B3F5806F19D100218A
:101C380004F10800FFF778FB0546002D4FD1224A32
:101C4800936D23F4E053D4F89C100B43936516E08E
:101C5800022104F12800FFF7EDFB0546BEE72E46FA
:101C6800D5E7012635460AE0B3F5805FE5D0B3F540
:101C7800A05FE2D0B3F5406FDFD00126354621687A
:101C880001F080020023134339D0D4F8A030B3F513
:101C9800804F00F0B98027D843B1B3F5005F20D159
:101CA800002104F10800FFF73FFB0546002D40F036
:101CB800B280054A936D23F46043D4F8A0100B4317
:101CC80093651CE00048025800440258CFFFFF000B
:101CD800022104F12800FFF7ADFB0546ADE72E46CB
:101CE800CDE7012635460AE0B3F5004FDED0B3F55F
:101CF800204FDBD0B3F5C04FD8D001263546216838
:101D080001F00802002313430DD0D4F88430B3F552
:101D1800805F00F08280B44A536D23F44053D4F8B6
:101D280084100B435365216801F01002002313430C
:101D38000CD0D4F89830B3F5807F78D0AA4A936D48
:101D480023F44073D4F898100B439365216801F489
:101D58000022002313430BD0D4F8A430B3F5803FFE
:101D68007FD0B3F5003F72D0002B6AD001263546EC
:101D7800216801F48022002313430DD0D4F8883061
:101D8800B3F5001F00F08580B3F5401F77D0B3F599
:101D9800801F6FD001263546216801F48032002368
:101DA800134308D0236D002B7CD0B3F5803F00F09F
:101DB800878001263546216801F00052002313432D
:101DC80040F08780216801F400320023134300F0BB
:101DD8008D80D4F88030B3F5807F00F0078140F221
:101DE8008280B3F5007F03D0B3F5407F40F0F980DF
:101DF800002D40F001817C4A536D23F44073D4F8E0
:101E080080100B43536571E0022104F12800FFF7AD
:101E180011FB05464AE72E4671E7022104F1280026
:101E2800FFF708FB00283FF476AF012673E702218D
:101E380004F12800FFF7FEFA00283FF47FAF0126DF
:101E48007CE7002104F10800FFF76EFA05467DB92A
:101E5800654A936D23F44033D4F8A4100B4393657B
:101E680086E7022104F12800FFF7E4FA0546EEE7C9
:101E78002E467DE75C4AD36A43F40033D3627DB9CA
:101E8800594A536D23F44013D4F888100B43536513
:101E980082E7012104F12800FFF7CCFA0546EEE7B6
:101EA8002E4679E7504AD36A43F40033D36275B9B2
:101EB8004D4AD36C23F48033216D0B43D3647AE706
:101EC800022104F10800FFF72FFA0546EFE72E4636
:101ED80071E7022104F12800FFF7ACFA00283FF46B
:101EE80071AF01266EE7002B82D00126216801F42C
:101EF80080120023134306D03B4A136D23F000439E
:101F0800616F0B431365216801F08052002313436E
:101F180007D0354A136923F48043D4F8B8100B432B
:101F28001361216801F400120023134306D02E4ADE
:101F3800136D23F08073E16E0B431365216801F084
:101F480080420023134309D0274B1A6922F4004228
:101F58001A611A69D4F8BC100A431A61216801F0A1
:101F680000420023134306D01F4AD36C23F040538A
:101F7800616D0B43D364216801F40002002313430D
:101F880007D0194A536D23F44003D4F88C100B433F
:101F980053656168002201F0010313432ED1616883
:101FA800002201F00203134331D16168002201F0DD
:101FB8000403134334D16168002201F0080313437A
:101FC80037D16168002201F0100313433AD16168E8
:101FD800002201F0200313433DD106B1012630460B
:101FE800F8BD012682E700BF004402581E4AD36AA2
:101FF80043F40033D362FBE62E4677E7002104F171
:102008000800FFF791F90028C9D00646C7E7012163
:1020180004F10800FFF788F90028C6D00646C4E78F
:10202800022104F10800FFF77FF90028C3D0064613
:10203800C1E7002104F12800FFF7FCF90028C0D00F
:102048000646BEE7012104F12800FFF7F3F900284E
:10205800BDD00646BBE7022104F12800FFF7EAF9E4
:102068000028BAD00646B8E700440258F0B482B057
:1020780000235FE086685F000325BD4026EA050669
:10208800CD68BD4035438560466826EA04064D683C
:10209800C5F300149C40344344605AE0DD08083519
:1020A80050F8257003F00704A6000F24B44027EA6F
:1020B80004070C69B4403C4340F825405DE009241E
:1020C80000E00024B4403C4302355F4E46F825400A
:1020D8004FF0B0442568D44325EA02064F6817F448
:1020E800801F01D042EA05064FF0B0452E606E68A9
:1020F80004EA06054F6817F4001F01D042EA0605F6
:102108004FF0B0467560514D6D6804EA05064F689A
:1021180017F4003F01D042EA05064C4D6E602D6869
:102128002C404E6816F4803F01D042EA0504474A25
:10213800146001330A6832FA03F400F08280012443
:102148009C402240F5D04D6805F00305013D012D66
:1021580090D94C6804F00304032C09D0C5685E00CC
:102168000324B44025EA04058C68B4402C43C460B9
:102178004C6804F00304022C90D005685E00032428
:10218800B44025EA04054C6804F00304B4402C4329
:1021980004604C6814F4403FCBD02D4CD4F8F45074
:1021A80045F00205C4F8F450D4F8F44004F00204F1
:1021B8000194019C9D08AE1C234C54F8267003F032
:1021C8000304A6000F24B44027EA0407214CA042C8
:1021D8003FF477AF04F58064A04222D004F5806410
:1021E800A04220D004F58064A0421ED004F580648B
:1021F800A0421CD004F58064A0421AD004F5806483
:10220800A04218D004F58064A04216D004F580647A
:10221800A04214D004F58064A0423FF450AF0A24D1
:1022280050E701244EE702244CE703244AE704243C
:1022380048E7052446E7062444E7072442E708243C
:1022480040E702B0F0BC7047000400588000005816
:1022580000440258000002580AB18161704709041D
:102268008161704770B405686E691F4C3440C3F3D0
:1022780010031C436C6105686B69C3F31303039C6B
:10228800013C43EA04536B6103681F245C600368E4
:10229800DA610368996101F07F41002918BFB1F143
:1022A800005F15D101688B6A43F480338B6202F0BA
:1022B8007F42002A18BFB2F1005F0FD10268936A0B
:1022C80043F400339362C26D03685A6270BC70476E
:1022D80001688B6A23F480338B62E8E70268936AAB
:1022E80023F400339362EEE70000FEFFC368016940
:1022F80002680B43D360436982691343C26913437D
:10230800026A1343426A1343C26A1343026B1343BC
:10231800826A013A43EA8243816802680B43136187
:102328004368B3F1804F1BD0036800225A61436BA6
:1023380093421BDB02689BB21362836B002B20DB8A
:1023480001680A6A42EA03430B624368B3F1804FAB
:1023580024D00268DBB29362036800225A62704795
:102368000268136943F040431361DDE7026853696B
:1023780043F480235361436B5B4202689BB2136250
:10238800DBE70268536943F400235361836B5A42C5
:1023980001680B6A43EA02430B62D6E7036800222E
:1023A8009A62D9E738B5044600F0E2FA44B3054624
:1023B800002384F83C30022384F83D302268D36837
:1023C80023F00103D3602368DB6813F0010F0BD0FF
:1023D80000F0CEFA431B052BF5D94023A36603234F
:1023E80084F83D3001200AE02046FFF77FFF0020F7
:1023F800E06520666066A066012384F83D3038BD3C
:102408000120FCE768B3034690F83C0001282AD075
:10241800012083F83C0093F83D00C0B2012804D0A5
:102428000120002283F83C20704730B41C682569DD
:1024380015F0804F09D121631868426351B91968B2
:102448000A6922F000420A610020002283F83C2039
:1024580030BC704719680A6942F000420A610020DE
:10246800F3E7012070470220704700284FD030B5AD
:1024780083B0044690F83C0001284AD0012084F833
:102488003C0094F83D00C0B2012805D0002384F830
:102498003C30022003B030BD022084F83D0000200B
:1024A800A0662568E86820F00100E86006980090BA
:1024B8002046FFF7D7FE2268D36843F00603D360AF
:1024C800E36C23B12268D36843F01003D360236D13
:1024D80023B12268D36843F00803D360A36C23B107
:1024E8002268D36843F02003D3602268D36843F09E
:1024F8000103D3606368B3F1804F01D00020C9E7BE
:102508002268D36843F48033D3600020C2E70120F7
:1025180070470220BEE790B190F83D30DBB2022B45
:1025280003D08023836601207047042380F83D3060
:102538000268D36823F00103D360002070470120AC
:102548007047000030B583B000230193674B1D68C6
:10255800674BA3FB05350168664B0B44C3F3841333
:10256800012202FA03F34FF0A44212681A4200F063
:10257800A5800446AD0A0B6813F0010F2FD0CB6875
:1025880013F0020F2BD0CB6823F00203CB60026854
:10259800936813F0800F40F09380816E41F0010141
:1025A800816613F4007F03D0A16E41F00401A16697
:1025B80013F4807F03D0A16E41F00801A16613F4E3
:1025C800806F03D0A16E41F01001A16613F4006F73
:1025D80003D0A36E43F02003A3660123536023684E
:1025E8001A6812F0100F09D0DA6812F0200F05D01F
:1025F80010225A60A36C0BB12046984723681A68CA
:1026080012F0080F09D0DA6812F0100F05D008226E
:102618005A60E36C0BB12046984723681A6812F099
:10262800040F09D0DA6812F0080F05D004225A60A6
:10263800236D0BB12046984723681A6812F0020FE1
:1026480019D0DA6812F0040F15D0DA6822F03E02C9
:10265800DA6094F83D30DBB2042B36D023680222CE
:102668005A60002384F83C30012384F83D30636CC1
:102678000BB120469847A36E03B3042384F83D307A
:102688002268D36823F00103D360019B01330193CF
:10269800AB4204D82368DB6813F0010FF5D100239F
:1026A80084F83C302368DB6813F0010F19D003234A
:1026B80084F83D30636D0BB12046984703B030BDB8
:1026C800816E41F0020181666BE7002384F83C309B
:1026D800012384F83D30A36D002BEFD020469847A6
:1026E800ECE7012384F83D30E4E700BF0800002050
:1026F800B5814E1BC0FFFFAD134BDB6813F0040F11
:1027080007D1114BDB6803F0070383421AD001207D
:10271800704710B50C4AD36823F007031843D060FC
:1027280000F026F90446084B5B6813F4005F07D1F4
:1027380000F01EF9001BB0F57A7FF4D9012000E003
:10274800002010BD00207047004802580649CB6899
:1027580023F4E0631B041B0C000200F4E060034355
:10276800024A1A43CA60704700ED00E00000FA050B
:1027780030B4154BDB68C3F30223C3F10704042C00
:1027880028BF04241D1D062D14D9033B4FF0FF3527
:1027980005FA04F421EA0401994005FA03F322EA50
:1027A80003031943002807DB0901C9B2074B195471
:1027B80030BC70470023E9E700F00F000901C9B2F7
:1027C800034B1954F4E700BF00ED00E000E400E01B
:1027D80014ED00E0002807DB00F01F024009012388
:1027E8009340024A42F82030704700BF00E100E001
:1027F8000138B0F1807F0AD2064B5860064AF021B2
:1028080082F823100020986007221A607047012080
:10281800704700BF10E000E000ED00E0BFF35F8FFD
:10282800044A536A23F480335362034B00225A60EC
:10283800704700BF00ED00E090ED00E040F00100BF
:10284800054B5860054A536A43F480335362BFF31B
:102858004F8FBFF36F8F704790ED00E000ED00E001
:102868004378114A9360136923F0010313614368A5
:10287800D360017BC37A1B0643EA0173817A43EA7A
:10288800C143417B43EA8143817B43EA4143C17BA6
:1028980043EA0143417A43EA0123017A43EA4103C7
:1028A80001780B431361704790ED00E0104B1B78E3
:1028B8000BB90120704710B504464FF47A70B0FB8D
:1028C800F3F30C4A1068B0FBF3F0FFF791FF68B917
:1028D8000F2C01D901200AE0002221464FF0FF30D9
:1028E800FFF746FF044B1C60002000E0012010BDEC
:1028F80000000020080000200400002010B503207C
:10290800FFF724FFFEF7CCFA0F498B69C3F30323C3
:102918000E4AD35C03F01F03D8408B6903F00F0302
:10292800D35C03F01F0320FA03F3094A1360094B31
:1029380018600F20FFF7BAFF10B10124204610BD20
:102948000446FDF741FFF9E700440258E840000853
:102958000C00002008000020034B1B78034A116874
:102968000B441360704700BF0000002034010020B2
:10297800014B1868704700BF3401002038B5044681
:10298800FFF7F6FF0546B4F1FF3F02D0044B1B7872
:102998001C44FFF7EDFF401BA042FAD338BD00BF2F
:1029A80000000020014B1868000C70470010005C04
:1029B800036C00229A631A68136843F400331360A7
:1029C8007047036C0022DA621A68136843F4003314
:1029D80013607047F0B44B6A33B1B2F1406F03D063
:1029E8008B6A0468013B23618C69002C74D00E6AE1
:1029F800002E3ED003688C68DC61CC69F4B1CB6AE8
:102A08000D6B2B434D6B2B434D6A2B434D6943EAAA
:102A180085430D692B430D6A2B43CD682B43234314
:102A28008C6923430C682343046813436361B2F140
:102A3800406F1CD003684A689A6118E0CB6A0D6B36
:102A48002B434D6B2B434D6A2B434D6943EA85431A
:102A58000D692B430D6A2B4323438C6923430C6870
:102A6800234301681A434A61036800229A61F0BC53
:102A78007047CD69D5B1CB6A0F6B3B434F6B3B4376
:102A88004F6A3B434F6943EA87433343CE68334336
:102A98002B4323430C682343046813436361B2F157
:102AA800406FE4D003684A689A61E0E7CB6A0F6B2D
:102AB8003B434F6B3B434F6A3B434F6943EA874372
:102AC80033432B4323430C68234301681A434A6169
:102AD800036800229A61CAE70E6A002E39D003689B
:102AE8008C68DC61CD69E5B1CB6A0C6B23434C6B18
:102AF80023434C6A23434C6943EA84430C692343C8
:102B08000C6A2343CC6823432B438C692343046812
:102B180013436361B2F1406FA9D003684A689A61B0
:102B2800A5E7CC6A0B6B1C434B6B1C434B6A1C43DD
:102B38004B6944EA83440B691C430B6A1C432C43CE
:102B48008D692C43036822435A61036800229A6105
:102B58008DE7CF69CFB1CD6A0B6B1D434B6B2B4310
:102B68004D6A2B434D6943EA85433343CD682B4374
:102B78003B432343046813436361B2F1406F3FF45E
:102B880076AF03684A689A6171E7D1F824C0BCF14E
:102B9800000F3FF46CAFCB6A0D6B2B434D6B2B438F
:102BA8004CEA030C4B694CEA83431E4347EA06038D
:102BB800234301681A434A61036800229A6156E771
:102BC8002DE9F84305460F4616469946DDF820805C
:102BD8002C68A4683C4214BF01240024B44214D0D9
:102BE800B8F1FF3FF4D0FFF7C3FEA0EB0900404562
:102BF80002D8B8F1000FEBD1042385F841306B6C93
:102C080043F001036B64012000E00020BDE8F88375
:102C18002DE9F04182B004460F461646FFF7A8FE9C
:102C280094F84030DBB2012B3BD00546012384F8F1
:102C3800403094F84130DBB2012B08D04FF0020845
:102C4800002384F84030404602B0BDE8F0810022FD
:102C58006264022384F8413000960346202120460E
:102C6800FFF7AEFF80460028EAD100223946204609
:102C7800FFF7B0FE7B6A1BB1012384F84130DFE720
:102C880000962B46012202212046FFF799FF804635
:102C98000028D5D123680222DA60012384F8413064
:102CA800CEE74FF00208CEE72DE9F04182B00446A6
:102CB80088461646FFF75CFE276894F84030DBB27A
:102CC800012B53D00546012384F8403094F8413055
:102CD800DBB2012B07D00223002284F840201846DB
:102CE80002B0BDE8F08100226264B8F1000F38D06C
:102CF800122384F841303B690133E3623B690133B5
:102D0800A362C4F824807B6923F040637B61134687
:102D1800E26A9AB100962B46012204212046FFF769
:102D28004FFF034650B9626A127887F82020616A1B
:102D380001316162E16A0139E162E9E71BB101220F
:102D480084F84120C8E700962B460122022120463C
:102D5800FFF736FF03460028F1D122680221D1602F
:102D6800EDE7626C42F008026264B5E70223B6E759
:102D780070B582B004460068026994F84030DBB24E
:102D8800012B00F08B800132012384F8403094F845
:102D98004150EDB29D4206D0002384F84030022510
:102DA800284602B070BD0023636400296ED0E26239
:102DB800122384F841300323C360E36AA36261628B
:102DC8002268536923F040635361E36B344A5A64C1
:102DD800E36B344A5A65E36B00229A65E36B1A6821
:102DE8001069314B03401361E26BD36903BB12686E
:102DF8001069A3F54173034043F0020313610026F1
:102E08002268136843F4803313602268136843F020
:102E1800040313602268A36A012000902032E06B4B
:102E2800FFF723FB10BB002384F840303546B7E793
:102E3800102B07D0202B0FD0636C43F0040363647E
:102E48002E46DDE712681069A3F54573034043F485
:102E5800817313610026D3E710680369134A1A4087
:102E680040F20223134303610026C9E7226813686E
:102E780023F004031360636C43F0040363640123C9
:102E880084F84130002384F8403089E7636C43F0CC
:102E980008036364002384F8403081E702257FE754
:102EA800CB290008C9330008F3F3FFFFFCFCFFFF40
:102EB80070B582B0044600688269066994F84030AB
:102EC800DBB2012B00F091800136012384F84030F9
:102ED80094F84150EDB29D4206D0002384F840306A
:102EE8000225284602B070BD00236364002974D00F
:102EF800A663222384F841300323C360A36B636372
:102F08002163E36B3A485864E36B3A485865E36BCE
:102F180000209865E36B18680669374B33400361F6
:102F2800E06B036A5BBB00680669A3F60D43334098
:102F380043F00803036100262068436923F04063D7
:102F480043F08063436123689A612268136843F4FD
:102F5800803313602268136843F004031360206809
:102F6800636B012200920A4600F12001E06BFFF733
:102F78007CFA10BB002384F840303546B1E7402B7B
:102F880007D0802B0FD0636C43F0040363642E4694
:102F9800D2E700680669A3F64D43334043F48163E2
:102FA80003610026C8E7066833691448184040F6EC
:102FB8000803034333610026BEE72268136823F041
:102FC80004031360636C43F004036364012384F80F
:102FD8004130002384F8403083E7636C43F00803F2
:102FE8006364002384F840307BE7022579E700BF5B
:102FF800B9290008C9330008FCFCFFFFF3F3FFFF01
:103008002DE9F04383B00446894616469846FFF7F3
:10301800AFFC94F84050EDB2012D49D0074601238A
:1030280084F8403094F84150EDB29D4206D0022019
:10303800002384F8403003B0BDE8F08300226264C6
:10304800422384F84130CDF80080034620212046F1
:10305800FFF7B6FD0028EBD1236832689A6223682F
:1030680072685A622368B268DA622268136823F4C5
:10307800400331690B4343F480031360F368C9F8D4
:1030880028304FF0006249462046FFF7A3FCCDF8F0
:1030980000803B46012208212046FFF791FD0028C9
:1030A800C6D123680822DA60012384F84130BFE7DB
:1030B8000220C0E708B5006C00238363C36290F860
:1030C8004130DBB2082B0DD103680222DA600268B6
:1030D800136843F4003313600268136843F0020373
:1030E800136008BD012380F8413000F02FFEF8E797
:1030F800704770477047704710B5044603689A6870
:10310800196812F0040F40D011F4802F3DD090F8C8
:103118004120D2B2122A0DD090F84120D2B2222AF0
:1031280020D02046FFF7E5FF10BD136823F4802365
:103138001360F6E72268916811F0040FF1D0E16A94
:103148000029F2D0626A127883F82020626A01327C
:103158006262E26A013AE262ECE7136823F48023D0
:103168001360DEE72268916811F0040FD9D0A16BD3
:103178000029F2D0226B93F820101170226B0132D3
:103188002263A26B013AA263ECE712F0020F76D039
:1031980011F4003F73D00222DA602268136823F426
:1031A800E023136094F84130DBB2122B1DD094F861
:1031B8004130DBB2222B2ED094F84130DBB2022B07
:1031C80052D094F84130DBB2082BADD12268536954
:1031D80023F040635361012384F84130636C002B72
:1031E80049D12046FFF784FF9EE723681A6812F04A
:1031F800040F09D01A6822F004021A60E36B1A68F7
:10320800D36823F00103D360012384F841302046BA
:1032180000F090FD88E721680B6813F0040F10D0C8
:103228000B6823F004030B60E36B1A68D36823F080
:103238000103D360012384F84130204600F06AFD81
:1032480072E723689B6813F47C5FF3D0A36B002BB1
:10325800F0D0236B91F820201A70236B013323637D
:10326800A36B013BA363ECE7012384F841302046BC
:1032780000F044FD58E7204600F068FD54E712F0DE
:10328800080F14D011F4002F11D00822DA60236837
:103298001A6812F4800F06D01A6822F410221A60F5
:1032A800012384F841302046FFF724FF3CE712F061
:1032B800010F31D011F4803F2ED00122DA6022684C
:1032C800136823F470231360636C43F00203636490
:1032D80023681A6812F0040F17D01A6822F0040243
:1032E8001A60E36B134A9A65E06BFFF714F900283C
:1032F8003FF41AAF636C43F004036364012384F85A
:103308004130204600F022FD0EE7012384F84130C9
:10331800204600F01BFD07E712F0100F3FF404AF42
:1033280011F4801F3FF400AF1022DA602046FFF747
:10333800E2FEF9E6BD30000890F8413013F0020FC4
:103348003AD010B50446002380F84030082380F8AE
:1033580041300268136823F4F813136003681A688D
:1033680012F0040F11D19A6812F0200F20D0022217
:10337800DA600268136843F4003313600268136864
:1033880043F002031360002010BD1A6822F0040203
:103398001A60C36B094A9A65C06BFFF7BCF800282E
:1033A800F1D0012384F841302046FFF7A1FEEAE777
:1033B800012380F84130E6E700207047BD3000085F
:1033C80008B5006C00238363C362436C43F00403B5
:1033D80043640268136823F004031360FFF7ACFF2B
:1033E80008BD81647047000030B583B00446FFF71C
:1033F800BFFA002C45D0054694F84130002B37D051
:1034080021680B6823F4F853A268013A43EA0223BF
:103418000B60A36C00932B46002220212046FFF767
:10342800CFFB18BB21680B68174A1A406568E36828
:1034380043EA0563E5692B43256A2B4313430B6075
:1034480021684A68114B13402569626942EA0542BE
:10345800A5692A4313434B602268136843F00103AC
:10346800136000236364012384F8413003B030BD46
:103478002046FDF76DF841F288312046FFF7B1FF8D
:10348800BEE70120F2E700BF2FFFFF00FEF8E0FFD4
:1034980030B4036A056A25F001050562846924F0E1
:1034A800F00444EA021423F00A030B438461036224
:1034B80030BC704730B4036A056A25F01005056210
:1034C800846924F4704444EA023423F0A00343EAF4
:1034D80001138461036230BC704700008268034BAB
:1034E80013400B4343F00703836070478FFFCFFF00
:1034F80070B40368394DA84214BF00250125B0F106
:10350800804F14BF2C4645F00104ACB9344A9042B0
:1035180014BF00220122334EB0420DD062B902F12D
:10352800804202F58232904214BF0022012206F541
:103538000066B04200D01AB123F070034A68134302
:1035480014BB274A904214BF00220122254CA042F6
:103558001AD0CAB902F1804202F58232904214BFF1
:103568000022012204F50064A0420DD062B91E4A6F
:10357800904214BF0022012204F59A34A04203D0DD
:1035880012B91A4A904203D123F44073CA6813430C
:1035980023F080034C6923438C68C4620C688462FE
:1035A800134A904214BF2A4645F001025AB90E4AFE
:1035B800904214BF002201220E4CA04203D012B93F
:1035C8000A4A904201D10A690263026842F0040281
:1035D800026001224261036070BC70470000014034
:1035E8000008004000040040004401400048014039
:1035F800000401400040014060B310B5044690F853
:103608003D3013B3022384F83D30214651F8040BB2
:10361800FFF76EFF012384F8483084F83E3084F8C1
:103628003F3084F8403084F8413084F8423084F8E0
:10363800433084F8443084F8453084F8463084F8C0
:10364800473084F83D30002010BD80F83C30FDF74D
:1036580087F8D7E70120704710B4846824F47F44C2
:1036680042EA03220A43224382605DF8044B704712
:1036780090F83C30012B00F08F8010B504460123F0
:1036880080F83C30022380F83D3002689068434B54
:10369800034093600B68702B55D031D8502B6CD0F9
:1036A8000CD9602B2AD1CA6849682068FFF702FF45
:1036B80060212068FFF712FF002035E0402B0AD177
:1036C800CA6849682068FFF7E3FE40212068FFF7D1
:1036D80005FF002028E05BD8202B07D003D9302B2A
:1036E80004D0012020E00BB1102B05D11946206829
:1036F800FFF7F4FE002017E0012015E0012013E099
:10370800B3F5005F2CD00BD9254A9342EED012D9DD
:10371800244A9342EAD010329342E7D0012003E0D2
:10372800B3F5805F36D10020012384F83D300023B3
:1037380084F83C3010BDB3F5801FD7D0B3F1101F0B
:10374800D4D00120F0E7CB684A6889682068FFF781
:1037580083FF2268936843F0770393600020E3E7D0
:10376800CB684A6889682068FFF776FF2268936803
:1037780043F4804393600020D6E7CA68496820680C
:10378800FFF786FE50212068FFF7A8FE0020CBE750
:103798000120C9E70120C7E7022070478800CEFF53
:1037A800200010003000100090F83C30012B45D06C
:1037B80070B4012380F83C30022380F83D30036860
:1037C8005A689D681E4E1F4CA34218BFB34203D1CE
:1037D80022F470024C68224322F070020C682243E3
:1037E8005A600368164AB3F1804F18BF934217D046
:1037F800A2F57C42934213D002F5806293420FD027
:1038080002F5806293420BD002F57842934207D0CA
:10381800A2F56C42934203D002F59432934204D14C
:1038280025F080058A6815439D60012380F83D30A6
:10383800002380F83C30184670BC7047022070475F
:103848000000014000040140304AD2F8883043F4B7
:103858007003C2F888302E4B1B6803F00F03062B49
:1038680006D82B4A136823F00F0343F007031360AD
:10387800284B1A6842F001021A6000221A6119687E
:10388800254A0A401A60224B1B6813F0080F06D01D
:103898001F4A136823F00F0343F0070313601D4BFF
:1038A80000229A61DA611A621C4999621C49D9623C
:1038B8001C4919635A639963DA6319645A6419686D
:1038C80021F4802119601A66174B1A68174B1340A8
:1038D800B3F1005F02D2164B01221A600D4BD3F8E8
:1038E800D43013F4805F10D10A4BD3F8D42042F4BB
:1038F8008052C3F8D4200F4A43F2D2011160D3F8A2
:10390800D42022F48052C3F8D420704700ED00E0A0
:1039180000200052004402587FEDF6EA000202023D
:103928000000FF01800201010010005C0000FFFFA1
:103938000881005100400052054AD36843F0020351
:10394800D360034B5B6813F4005FFAD0704700BF85
:103958000048025838B50446FFF70AF80546084BF0
:103968001B7833B9002CFAD0FFF702F8401BA042AD
:10397800F5D9034B1B780BB1002038BD0120FCE7BB
:10398800110000204FF4807383614FF44063C361DA
:103998004FF40053C3604FF0407343620023036247
:1039A800C3620363436343617047000000B58FB08F
:1039B80038220021684600F07FFB6846FFF7E2FFE7
:1039C80006230093002309930793084B1B78002BC9
:1039D800FBD041F2883269460548FFF719F910B95A
:1039E8000FB05DF804FB0120FAE700BF10000020CB
:1039F8009C00002000B58FB038220021684600F0F6
:103A08005BFB6846FFF7BEFF04230093002309937E
:103A18000793084B1B78002BFBD041F2883269468C
:103A28000548FFF7F5F810B90FB05DF804FB012061
:103A3800FAE700BF100000209C00002010B58EB0EF
:103A4800044638220021684600F036FB6846FFF736
:103A580099FF052300934FF0807309930023079380
:103A68000393019301230A930F4B1B78002BFBD080
:103A780000230D4A13700D4A137041F288326946CB
:103A88000B48FFF7C5F818B1012420460EB010BD49
:103A980021460748FFF70CFA044608B10124F4E769
:103AA800FFF758FFF1E700BF1000002011000020C9
:103AB8009C00002010B58EB00446382200216846CC
:103AC80000F0FAFA6846FFF75DFF352300934FF0E0
:103AD80080730993002307930393019301230A93A7
:103AE8000F4B1B78002BFBD000230D4A13700D4A97
:103AF800137041F2883269460B48FFF789F818B10C
:103B0800012420460EB010BD21460748FFF7D0F922
:103B1800044608B10124F4E7FFF71CFFF1E700BFF2
:103B280010000020110000209C00002010B58EB06D
:103B3800044638220021684600F0BEFA6846FFF7BE
:103B480021FF152300934FF08073099300230793F7
:103B58000393019301230A930F4B1B78002BFBD08F
:103B680000230D4A13700D4A137041F288326946DA
:103B78000B48FFF74DF818B1012420460EB010BDD0
:103B880021460748FFF794F9044608B10124F4E7F1
:103B9800FFF7E0FEF1E700BF100000201100002051
:103BA8009C00002000B595B03822002106A800F03E
:103BB80083FA06A8FFF7E6FE0523069300230D9374
:103BC8004FF080720F9201220192009304930392A6
:103BD800102302934FF480030593084B1B78002BA6
:103BE800FBD0074B6A4606A90648FFF709FA10B941
:103BF80015B05DF804FB0120FAE700BF10000020B3
:103C0800A08601009C00002010B590B08DF8070038
:103C18003822002102A800F04FFAFFF7C7FE18B1BA
:103C28000124204610B010BD02A8FFF7ABFE3123D7
:103C380002934FF080730B9300230993059303932A
:103C480001230C930E4B1B78002BFBD000230C4A4E
:103C580013700C4A137041F2883202A90A48FEF721
:103C6800D7FF08B10124DCE70DF107010648FFF78B
:103C78007FF8044608B10124D3E7FFF793FFD0E7A4
:103C880010000020110000209C00002010B590B00A
:103C98008DF807003822002102A800F00DFAFFF77E
:103CA80085FE18B10124204610B010BD02A8FFF708
:103CB80069FE112302934FF080730B93002309933D
:103CC8000593039301230C9341F2883202A90A4811
:103CD800FEF79EFF08B10124E5E741F288320DF1B5
:103CE80007010548FEF7E0FF044608B10124DAE7BA
:103CF800FFF758FFD7E700BF9C000020034B834223
:103D080000D07047024B01221A70FAE79C0000208D
:103D180010000020044B834200D070470123034A5F
:103D28001370034A1370F8E79C000020100000206D
:103D380011000020034B834200D07047024B012240
:103D48001A70FAE79C00002010000020064B8342FE
:103D580000D07047054BFF221A70054B1B78002BCB
:103D6800F7D1034B1A70F4E79C00002010000020E4
:103D78001100002010B50446012210211948FEF751
:103D88006BFA6420FEF7FAFD4CB9002210211548A1
:103D9800FEF762FA4FF4FA70FEF7F0FD10BD114C11
:103DA800002210212046FEF757FAC820FEF7E6FD4C
:103DB800012210212046FEF74FFA6420FEF7DEFDAF
:103DC800002210212046FEF747FAC820FEF7D6FD4C
:103DD800012210212046FEF73FFA6420FEF7CEFDAF
:103DE800D3E700BF0010025810B582B004238DF845
:103DF80007300DF10700FFF721FE9DF8074004B1D9
:103E08000124FFF7D3FD0120FEF7B8FD0DF10700EF
:103E1800FFF714FE9DF80730022B00D00124FFF7AE
:103E2800E9FD0120FEF7AAFD0DF10700FFF706FEE8
:103E38009DF8073003B10124204602B010BD30B50B
:103E480083B000258DF807500DF10700FFF76EFECF
:103E58000120FEF793FDFF248DF807400DF10700C0
:103E6800FFF764FE0120FEF789FDFFF79FFD0120A3
:103E7800FEF784FD9DF8070000F09F008DF807000D
:103E8800FFF704FF8DF807000120FEF777FD8DF896
:103E980007500DF10700FFF749FE0120FEF76EFD00
:103EA8008DF807400DF10700FFF740FE0120FEF7EF
:103EB80065FD03B030BD10B582B00120FEF75EFD90
:103EC800FF248DF807400DF10700FFF7F3FD0120EF
:103ED800FEF754FDFFF76AFD0120FEF74FFD9DF840
:103EE800070000F0FD008DF80700FFF78DFE8DF844
:103EF80007000120FEF742FD8DF807400DF107008D
:103F0800FFF7D8FD0120FEF739FDFFF74FFD01202F
:103F1800FEF734FD9DF8070040F002008DF8070019
:103F2800FFF772FE8DF807000120FEF727FD8DF8D8
:103F380007400DF10700FFF7BDFD0120FEF71EFD4C
:103F48000120FEF71BFDFFF731FD0120FEF716FDEE
:103F58009DF8070000F0FD008DF80700FFF754FEFC
:103F68008DF807000120FEF709FD8DF807400DF1D7
:103F78000700FFF79FFD0120FEF700FDFFF716FD84
:103F88000120FEF7FBFC9DF8070040F002008DF8C9
:103F98000700FFF739FE8DF807000120FEF7EEFC59
:103FA8008DF807400DF10700FFF784FD0120FEF7AB
:103FB800E5FC02B010BD30B583B005460DF1070031
:103FC800FFF73CFD9DF8074004B1012415B92046D0
:103FD80003B030BDFFF7EAFC0120FEF7CFFC0DF17E
:103FE8000700FFF72BFD9DF80730022B00D00124B6
:103FF8000A20FEF7C3FCFFF7F7FE00B10124FFF724
:104008001EFF0A20FEF7BAFCFFF755FFB4FA84F04A
:104018004009FFF7AFFEDAE7DFF838D0FFF78CFC8E
:10402800FFF712FC0C480D490D4A002302E0D45852
:10403800C4500433C4188C42F9D30A4A0A4C0023EA
:1040480001E013600432A242FBD300F011F8FCF740
:10405800CBF9704700000220000000201400002067
:10406800004100081400002038010020FEE700008D
:1040780070B50D4D0D4C641BA4100026A64209D145
:104088000B4D0C4C00F020F8641BA4100026A6422F
:1040980005D170BD55F8043B98470136EEE755F851
:1040A800043B98470136F2E7F8400008F84000085A
:1040B800F8400008FC40000802440346934200D13F
:1040C800704703F8011BF9E7F8B500BFF8BC08BC56
:1040D8009E467047F8B500BFF8BC08BC9E467047BE
:1040E8000000000001020304010203040607080996
:0440F800BD020008FD
:0440FC00990200081D
:1041000001000000100000000090D0030090D003D8
:0441100001010000A9
:04000005080040218E
:00000001FF
