:020000040800F2
:10000000000002207D400008610800086308000825
:10001000650800086708000869080008000000007B
:100020000000000000000000000000006B08000855
:100030006D080008000000006F0800087108000843
:10004000D1400008D1400008D1400008D14000084C
:10005000D1400008D1400008D1400008D14000083C
:10006000D1400008D1400008D1400008D14000082C
:10007000D1400008D1400008D1400008D14000081C
:10008000D1400008D1400008D1400008D14000080C
:10009000D1400008D1400008D1400008D1400008FC
:1000A000D1400008D1400008D1400008D1400008EC
:1000B000D1400008D1400008D1400008D1400008DC
:1000C000D1400008D1400008D1400008D1400008CC
:1000D000D1400008D1400008D1400008D1400008BC
:1000E000D1400008D140000800000000D1400008C5
:1000F000D1400008D1400008D1400008D14000089C
:10010000D1400008D1400008D1400008D14000088B
:10011000D1400008D1400008D1400008D14000087B
:10012000D1400008D1400008D1400008D14000086B
:10013000D1400008D1400008D1400008D14000085B
:1001400000000000000000000000000000000000AF
:10015000D1400008D1400008D1400008D14000083B
:10016000D1400008D1400008D1400008D14000082B
:10017000D1400008D1400008D1400008D14000081B
:10018000D1400008D1400008D1400008D14000080B
:10019000D1400008D1400008D1400008D1400008FB
:1001A000D1400008D1400008D1400008D1400008EB
:1001B00079080008D1400008D1400008D14000086B
:1001C000D1400008D1400008D1400008D1400008CB
:1001D000D1400008D1400008D1400008D1400008BB
:1001E000D1400008D1400008D1400008D1400008AB
:1001F000D1400008D1400008D1400008D14000089B
:10020000D1400008D1400008D1400008D14000088A
:10021000D1400008D1400008D1400008D14000087A
:10022000D1400008D1400008890800080000000003
:10023000D1400008D140000800000000D140000873
:10024000D1400008D1400008D1400008D14000084A
:10025000D1400008D1400008D1400008D14000083A
:10026000D1400008D1400008D1400008D14000082A
:10027000D1400008D1400008D14000080000000033
:10028000D1400008D1400008D14000080000000023
:0802900000000000D14000084D
:1002980010B5054C237833B9044B13B10448AFF3B8
:1002A80000800123237010BD7000002000000000B2
:1002B8002C4A000808B5034B1BB103490348AFF3A8
:1002C800008008BD00000000740000202C4A0008CF
:1002D8004FF06043D3F8803E13F0010F11D04FF078
:1002E8006043D3F8003E13F0010F01D1704700BFFF
:1002F8004FF060431B68002BF9D0C3B24FF0604247
:100308001370704710B584B00024009401940294CF
:10031800039402F0D3FA01238DF800308DF80140E0
:1003280001941F228DF8082087228DF809208DF866
:100338000A408DF80B408DF80C308DF80D308DF893
:100348000E408DF80F40684602F0D6FA042002F0FD
:10035800C3FA04B010BD70B50C461646002504E07B
:1003680014F8010BFFF7B4FF0135B542F8DB30464E
:1003780070BD72B6FEE7000000B59DB04C220021AA
:1003880009A804F09BF82022002101A804F096F89F
:10039800022002F0EFF900230093254B9A6942F4FA
:1003A80040429A619B6903F440430093214BDA6A07
:1003B80042F00102DA62DB6A03F001030093009B5A
:1003C8001B4B9B6913F4005FFAD0012209924FF48A
:1003D80080330A9302231293139314923C221592AA
:1003E8001693179318930C23199300231A931B93AE
:1003F80009A800F05FFAB8B93F23019303230293D9
:1004080000230393082304934023059306934FF492
:1004180080620792089304210DEB010000F09EFE14
:1004280020B91DB05DF804FBFFF7A3FFFFF7A1FF9C
:10043800004802580004005800B5C3B0FFF762FF37
:1004480002F0AEFAFFF798FF00F042F800F0A8F8C3
:1004580000F0C2F800F0B0F91B4803F041F803F0CF
:100468003FFD322002F0DCFA4FF48072002102A82E
:1004780004F024F8FF238DF807308DF806308DF846
:10048800053003F0CDFB0DF1070003F0EDFB0DF196
:10049800060003F025FC02208DF8060003F0CAFCD4
:1004A8000DF1060003F01CFC0DF1050003F054FCEF
:1004B800012003F0A5FD054803F020FF4FF47A70F2
:1004C80002F0AEFAF4E700BF44010020444A0008F5
:1004D80030B58DB000240794089409940A940B94BD
:1004E8002D4BD3F8E02042F01002C3F8E020D3F8F7
:1004F800E02002F010020192019AD3F8E02042F0C5
:100508000402C3F8E020D3F8E02002F004020292CB
:10051800029AD3F8E02042F08002C3F8E020D3F832
:10052800E02002F080020392039AD3F8E02042F020
:100538004002C3F8E020D3F8E02002F04002049221
:10054800049AD3F8E02042F02002C3F8E020D3F860
:10055800E02002F020020592059AD3F8E02042F04C
:100568000802C3F8E020D3F8E03003F0080306934C
:10057800069B0A4D01223821284601F0A7FE3823A0
:1005880007930123089309940A9407A9284601F0C0
:100598008DFD0DB030BD00BF004402580010025858
:1005A80000B583B00B4BD3F8D42042F00102C3F856
:1005B800D420D3F8D43003F001030193019B002227
:1005C80011467A2002F052F97A2002F05FF903B05E
:1005D8005DF804FB0044025808B50B480B4B036058
:1005E80001234360202383600023C3601722026134
:1005F80043618361C361036202F0ECFE00B908BD88
:10060800FFF7B7FEFBE700BFF800002000500052DC
:100618002DE9F041BCB00446002137913891399159
:100628003A913B91C02206A803F048FF22685A4B32
:100638009A4202D03CB0BDE8F0814FF0007200232E
:10064800CDE9062306A800F0DBFF002840F09A80D9
:10065800524BD3F8D42042F48042C3F8D420D3F8C4
:10066800D42002F480420192019AD3F8E02042F0AB
:100678001002C3F8E020D3F8E02002F01002029242
:10068800029AD3F8E02042F04002C3F8E020D3F801
:10069800E02002F040020392039AD3F8E02042F0EF
:1006A8002002C3F8E020D3F8E02002F020020492F0
:1006B800049AD3F8E02042F00802C3F8E020D3F807
:1006C800E03003F008030593059B042337930226C3
:1006D8003896002539954FF00308CDF8E8800927AA
:1006E8003B9737A92E4801F0E1FC40233793389611
:1006F80039953A960A233B9337A92A4801F0D6FC44
:100708004FF480633793389639953A963B9737A9D3
:10071800254801F0CBFC4FF4605337933896399550
:10072800CDF8E8803B9737A9204801F0BFFC204866
:10073800204B0360162343608560C56005614661F0
:1007480008238361C56105624FF00073436220236B
:100758008362C56205634563856301F061FEA0B9E4
:1007680000221146124801F08BFE88B9104BE36352
:100778001C64002211465C2002F078F85C2002F02C
:1007880085F857E7FFF7F5FD62E7FFF7F2FDE7E7C2
:10079800FFF7EFFDEAE700BF00500052004402589F
:1007A800001002580018025800140258000C025891
:1007B8008C0000204000005200B589B0002304934B
:1007C80005930693079301930293039314484FF0FC
:1007D80080420260EF2242608360124AC260036175
:1007E800836102F043FF90B94FF48053049304A946
:1007F8000B4802F079FF68B900230193039301A91C
:10080800074803F00DF840B909B05DF804FBFFF79D
:10081800B0FDE9E7FFF7ADFDEEE7FFF7AAFDF3E767
:10082800440100203F420F000368B3F1804F00D01D
:10083800704782B0074BD3F8E82042F00102C3F8B2
:10084800E820D3F8E83003F001030193019B02B0DC
:10085800704700BF00440258FEE7FEE7FEE7FEE7E8
:10086800FEE770477047704708B502F0C7F808BD43
:1008780008B5024802F036FC08BD00BFF8000020A9
:1008880008B5024801F09CFE08BD00BF8C0000209E
:1008980082B0074BD3F8F42042F00202C3F8F420E8
:1008A800D3F8F43003F002030193019B02B07047C0
:1008B80000440258002800F0398338B5044603681C
:1008C80013F0010F25D0944A136903F03803926A94
:1008D800102B15D0182B0FD06368B3F5803F3FD08D
:1008E800002B53D18C4B1A6822F480321A601A6894
:1008F80022F480221A6038E002F00302022AEBD1C7
:10090800854B1B6813F4003F03D06368002B00F08D
:100918000F83236813F0020F00F0A1807E4A136949
:10092800926A13F038035AD0182B55D0E368002B7D
:1009380000F0DE8078490A6822F0190213430B6040
:1009480002F068F80546744B1B6813F0040F40F07A
:10095800AD8002F05FF8401B0228F4D90320EEE2D4
:100968006D4A136843F48033136063682BB302F055
:1009780051F80546684B1B6813F4003FC9D102F0D3
:1009880049F8401B6428F5D90320D8E2B3F5A02F15
:1009980009D0614B1A6822F480321A601A6822F46E
:1009A80080221A60E1E75C4B1A6842F480221A60E0
:1009B8001A6842F480321A60D7E702F02BF805462D
:1009C800554B1B6813F4003FA3D002F023F8401BDB
:1009D8006428F5D90320B2E212F0030FA6D14E4BDA
:1009E8001B6813F0040F03D0E368002B00F0A28209
:1009F800494A136823F01903E1680B43136002F0B6
:100A080009F80546444B1B6813F0040F06D102F0A1
:100A180001F8401B0228F5D9032090E202F014F8EF
:100A280041F20303984212D82269402A07D03A4972
:100A38004B6823F47C3343EA02334B600FE0364AB9
:100A4800536823F47C3343F40033536007E0324A9D
:100A5800536823F0FE43216943EA01635360236826
:100A680013F0100F00F088802B4A136903F0380345
:100A7800926A082B56D0182B50D0E369002B00F04F
:100A8800B880254A136843F08003136001F0C2FF61
:100A98000546214B1B6813F4807F40F0888001F0E5
:100AA800B9FF401B0228F4D9032048E201F0CCFF2B
:100AB80041F20303984212D82269402A07D0164906
:100AC8004B6823F47C3343EA02334B60C7E7124A8E
:100AD800536823F47C3343F400335360BFE70E4A72
:100AE800536823F0FE43216943EA01635360B6E784
:100AF800094A136823F00103136001F08BFF0546D0
:100B0800054B1B6813F0040FA9D001F083FF401BAD
:100B18000228F5D9032012E20044025802F0030229
:100B2800012AAAD1A14B1B6813F4807F03D0E36983
:100B3800802B40F0018201F087FF41F203039842C5
:100B480012D8226A202A07D098494B6823F0F84324
:100B580043EA82634B600FE0944A536823F0F843FA
:100B680043F08043536007E0904AD36823F07C53F6
:100B7800216A43EA0163D360236813F0080F60D049
:100B88006369002B49D0894A536F43F001035367C7
:100B980001F040FF0546854B5B6F13F0020F50D103
:100BA80001F038FF401B0228F5D90320C7E101F006
:100BB8004BFF41F20303984212D8226A202A07D039
:100BC8007A494B6823F0F84343EA82634B60D3E7E2
:100BD800764A536823F0F84343F080435360CBE7E9
:100BE800724AD36823F07C53216A43EA0163D360D5
:100BF800C2E76E4A136823F08003136001F00AFF0E
:100C080005466A4B1B6813F4807FB5D001F002FFDC
:100C1800401B0228F5D9032091E1644A536F23F061
:100C28000103536701F0F6FE0546604B5B6F13F056
:100C3800020F06D001F0EEFE401B0228F5D9032072
:100C48007DE1236813F0200F29D0A3699BB1574A8F
:100C5800136843F48053136001F0DCFE0546534BE0
:100C68001B6813F4005F1AD101F0D4FE401B022860
:100C7800F5D9032063E14D4A136823F480531360C8
:100C880001F0C8FE0546494B1B6813F4005F06D007
:100C980001F0C0FE401B0228F5D903204FE123686C
:100CA80013F0040F21D1636A002B00F047813F4AFB
:100CB800126902F03802182A00F0EE80022B79D06F
:100CC8003A4A136823F08073136001F0A3FE0446C8
:100CD800364B1B6813F0007F00F0DC8001F09AFEB1
:100CE800001B0228F4D9032029E1314A136843F490
:100CF8008073136001F08EFE05462D4B1B6813F4BC
:100D0800807F06D101F086FE401B6428F5D90320B8
:100D180015E1A368012B0AD00BBB244B1A6F22F0F4
:100D280001021A671A6F22F004021A6704E01F4AC8
:100D3800136F43F001031367A36833B301F06AFE2E
:100D480005461A4B1B6F13F0020FACD101F062FE7F
:100D5800401B41F288339842F3D90320EFE0052B7A
:100D680009D0124B1A6F22F001021A671A6F22F08B
:100D780004021A67E0E70D4B1A6F42F004021A6783
:100D88001A6F42F001021A67D6E701F043FE0546E2
:100D9800064B1B6F13F0020F85D001F03BFE401B82
:100DA80041F288339842F3D90320C8E0004402583E
:100DB80000480258694A136823F08073136001F0F1
:100DC80029FE0546654B1B6813F0007F06D001F02D
:100DD80021FE401B0228F5D90320B0E05F4B996A39
:100DE8005F4A0A40A16AE06A41EA00110A439A622E
:100DF800226B013AC2F30802616B0139490289B2D8
:100E08000A43A16B0139090401F4FE010A43E16BAD
:100E18000139090601F0FE410A431A63DA6A22F031
:100E28000102DA625A6B6FF3CF02A16C42EAC10287
:100E38005A63DA6A22F00C02216C0A43DA62DA6A2F
:100E480022F00202616C0A43DA62DA6A42F4803202
:100E5800DA62DA6A42F40032DA62DA6A42F480224A
:100E6800DA62DA6A42F00102DA621A6842F08072E3
:100E78001A6001F0CFFD0446384B1B6813F0007F61
:100E880006D101F0C7FD001B0228F5D9032056E062
:100E9800002054E0002052E0304A916A106B012B88
:100EA8004ED001F00303A26A93424BD1C1F305115E
:100EB800E36A994248D1C0F30802236B013B9A4286
:100EC80044D1C0F34622636B013B9A4240D1C0F340
:100ED8000642A36B013B9A423CD1C0F30660E36B28
:100EE800013B984238D11D4B5B6BC3F3CC03A26C1A
:100EF8009A4201D1002022E0184AD36A23F0010364
:100F0800D36201F087FD054601F084FDA842FBD0BD
:100F1800124A536B6FF3CF03A16C43EAC1035363C7
:100F2800D36A43F00103D362002008E00120704730
:100F3800012004E0012002E0012000E0002038BD8B
:100F48000120FCE70120FAE70120F8E70120F6E795
:100F58000120F4E70120F2E70120F0E700440258FD
:100F68000CFCFFFF754B1B6903F03803102B00F0D6
:100F7800DE80182B0FD0002B40F0DB806F4B1B68F6
:100F880013F0200F00F0D7806C4B1B68C3F3C1032C
:100F98006B48D840704710B4684B9A6A02F0030255
:100FA8009C6AC4F30510D96A01F001015B6BC3F3B5
:100FB800CC0301FB03F307EE903AF8EE677A14F4DA
:100FC8007C7F77D0012A4AD0022A76D0002A40F0C6
:100FD80091805A4B1B6813F0200F23D057490A6899
:100FE800C2F3C102564BD34007EE103AF8EE476AF7
:100FF80007EE100AB8EE476A86EE867A0B6BC3F3E3
:10100800080306EE903AF8EE666A9FED4E6A67EEC0
:10101800867A76EEA77AF7EE006A77EEA67A27EE5A
:10102800277A38E007EE100AF8EE476A9FED466A1D
:1010380086EE267A414B1B6BC3F3080306EE903A03
:10104800F8EE666A9FED3F6A67EE867A76EEA77AD3
:10105800F7EE006A77EEA67A27EE277A1BE007EE0E
:10106800100AF8EE476A9FED396A86EE267A334B06
:101078001B6BC3F3080306EE903AF8EE666A9FED21
:10108800316A67EE867A76EEA77AF7EE006A77EE2F
:10109800A67A27EE277A294B1B6BC3F34623013325
:1010A80007EE903AF8EE677AC7EE276AFCEEE67A22
:1010B80017EE900A5DF8044B704707EE100AF8EE39
:1010C800476A9FED236A86EE267A1C4B1B6BC3F397
:1010D800080306EE903AF8EE666A9FED1A6A67EE24
:1010E800867A76EEA77AF7EE006A77EEA67A27EE8A
:1010F800277AD0E707EE100AF8EE476A9FED136AE1
:1011080086EE267A0D4B1B6BC3F3080306EE903A66
:10111800F8EE666A9FED0B6A67EE867A76EEA77A36
:10112800F7EE006A77EEA67A27EE277AB3E7094842
:101138007047094870470248704700BF004402588A
:101148000090D003000000390024744C0024744A35
:101158000024744B0024F40000093D00002800F02E
:10116800328170B50D4604469B4B1B6803F00F0394
:101178008B420BD2984A136823F00F030B4313607A
:10118800136803F00F038B4240F01F81236813F0AC
:10119800040F0CD02269914B9B6903F070039A42AB
:1011A80005D98E498B6923F070031A438A61236835
:1011B80013F0080F0CD06269884BDB6903F07003E9
:1011C8009A4205D98549CB6923F070031A43CA614D
:1011D800236813F0100F0CD0A269804BDB6903F46D
:1011E800E0639A4205D97D49CB6923F4E0631A4349
:1011F800CA61236813F0200F0CD0E269774B1B6A91
:1012080003F070039A4205D974490B6A23F07003FE
:101218001A430A62236813F0020F0CD0E2686F4B7E
:101228009B6903F00F039A4205D96C498B6923F037
:101238000F031A438A61236813F0010F41D0674AEC
:10124800936923F47063A1680B4393616368022B6D
:101258000AD0032B27D0012B2CD0604A126812F039
:10126800040F06D10120ADE0126812F4003F00F02F
:10127800AE805A490A6922F0070213430B6101F054
:10128800C9FB0646554B1B6903F038036268B3EB8C
:10129800C20F16D001F0BEFB801B41F28833984282
:1012A800F0D903208EE04D4A126812F0007FE0D199
:1012B800012087E0494A126812F4807FD9D10120C1
:1012C80080E0236813F0020F0CD0E268434B9B695F
:1012D80003F00F039A4205D240498B6923F00F03AC
:1012E8001A438A613C4B1B6803F00F03AB420AD9CF
:1012F800394A136823F00F032B431360136803F074
:101308000F03AB4265D1236813F0040F0CD0226998
:10131800324B9B6903F070039A4205D22F498B69BF
:1013280023F070031A438A61236813F0080F0CD066
:1013380062692A4BDB6903F070039A4205D2274998
:10134800CB6923F070031A43CA61236813F0100FA6
:101358000CD0A269214BDB6903F4E0639A4205D201
:101368001E49CB6923F4E0631A43CA61236813F06A
:10137800200F0CD0E269194B1B6A03F070039A42E4
:1013880005D216490B6A23F070031A430A62FFF765
:10139800E9FD12498B69C3F30323114AD35C03F0B7
:1013A8001F03D8408B6903F00F03D35C03F01F03BE
:1013B80020FA03F30B4A13600B4B18600B4B1868A9
:1013C80001F0C6FA70BD012070470120FAE701203C
:1013D800F8E70120F6E700BF002000520044025859
:1013E800544A0008080000200C00002004000020D7
:1013F800404B9B6A03F00303032B79D070B5054675
:101408000E463C4A136823F08063136001F002FB28
:101418000446384B1B6813F0006F06D001F0FAFA47
:10142800031B022BF5D9032070BD324B9A6A22F4B4
:101438007C32296842EA01329A626A68013AC2F348
:101448000802A9680139490289B20A43E9680139E1
:10145800090401F4FE010A4329690139090601F06A
:10146800FE410A439A63DA6A22F0C00269690A43B4
:10147800DA62DA6A22F02002A9690A43DA62DA6AD1
:1014880022F01002DA62DA6B6FF3CF02E96942EAFE
:10149800C102DA63DA6A42F01002DA62C6B91A46A1
:1014A800DB6A43F40023D362124A136843F0806373
:1014B800136001F0AFFA04460E4B1B6813F0006F7F
:1014C80014D101F0A7FA001B0228F5D90320ABE7D5
:1014D800012E05D0074AD36A43F40013D362E3E729
:1014E800044AD36A43F48013D362DDE700209BE704
:1014F8000120704700440258404B9B6A03F00303E5
:10150800032B79D070B505460E463C4A136823F084
:101518008053136001F07EFA0446384B1B6813F0C1
:10152800005F06D001F076FA031B022BF5D90320E1
:1015380070BD324B9A6A22F07C72296842EA0152E5
:101548009A626A68013AC2F30802A9680139490235
:1015580089B20A43E9680139090401F4FE010A4322
:1015680029690139090601F0FE410A431A64DA6A59
:1015780022F4406269690A43DA62DA6A22F4007284
:10158800A9690A43DA62DA6A22F48072DA625A6C6A
:101598006FF3CF02E96942EAC1025A64DA6A42F497
:1015A8008072DA62C6B91A46DB6A43F48003D362F2
:1015B800124A136843F08053136001F02BFA044673
:1015C8000E4B1B6813F0005F14D101F023FA001BC7
:1015D8000228F5D90320ABE7012E05D0074AD36AC4
:1015E80043F08073D362E3E7044AD36A43F4000309
:1015F800D362DDE700209BE70120704700440258D2
:10160800F8B50446036813F0006F30D0836EB3F565
:10161800001F26D00ED8ABB1B3F5801F07D1022129
:101628000830FFF7E5FE054695B12E4621E0012674
:1016380035461EE0B3F5401F01D1002508E001261C
:10164800354616E0984AD36A43F40033D36200253E
:10165800954A136D23F44013A16E0B4313650026BE
:1016680007E002212830FFF747FF0546DCE70026A0
:101678003546236813F4807F14D0A36D042B31D82A
:10168800DFE803F0032229080800874AD36A43F4F5
:101698000033D3624DBB844A136D23F00703A16D59
:1016A8000B431365236813F4007F38D0E36D802B58
:1016B8004AD01FD833B3402B19D1002104F10800B8
:1016C800FFF796FE054622E0002104F10800FFF727
:1016D8008FFE0546DEE7002104F12800FFF70CFF26
:1016E8000546D7E701263546DCE72E46DAE7012628
:1016F800354614E0C02B0AD0B3F5807F07D0012609
:1017080035460CE0684AD36A43F40033D36215BB0C
:10171800654A136D23F4E073E16D0B431365236889
:1017280013F4806F3CD0D4F8A830B3F5800F2FD0D5
:1017380016D8F3B1B3F5001F0FD1002104F108004A
:10174800FFF756FE054619E0002104F12800FFF7CF
:10175800D3FE0546DBE72E46E1E7012635461FE0C6
:10176800B3F5C00F0AD0B3F5000F07D001263546F0
:1017780016E04D4AD36A43F40033D3627DB94A4A2E
:10178800936D23F46003D4F8A8100B43936507E026
:10179800002104F12800FFF7AFFE0546EEE72E46CC
:1017A800236813F4006F2BD0D4F8AC30B3F1007F6A
:1017B80053D00DD8ABB1B3F1807F06D1002104F12D
:1017C8000800FFF715FE054610E00126354617E02C
:1017D800B3F1407F0AD0B3F1806F07D001263546B8
:1017E8000EE0314AD36A43F40033D362002D3BD173
:1017F8002D4A936D23F0E063D4F8AC100B43936546
:10180800236813F0007F13D0E36C202B36D030D838
:1018180033B1102B2AD1244AD36A43F40033D3625C
:101828009DBB214AD36C23F03003E16C0B43D36496
:10183800236813F4805F47D0236EB3F5005F00F090
:101848008D8027D893B3B3F5805F20D1002104F1B0
:101858000800FFF7CDFD05462DE0002104F1280022
:10186800FFF74AFE0546C1E72E46C9E70126354679
:10187800DEE7302BD4D001263546D9E7022104F122
:101888000800FFF7B5FD0546CAE72E46D0E7012652
:10189800354619E0B3F5405F0DD0B3F5804F0AD057
:1018A8000126354610E000BF00440258774AD36A43
:1018B80043F40033D362002D57D1744A136D23F4D7
:1018C800E043216E0B431365236813F4005F17D0C0
:1018D800636EB3F5003F59D04CD843B1B3F5803FA0
:1018E80045D1012104F10800FFF782FD0546002DCE
:1018F80053D1664A136D23F4E023616E0B431365DD
:10190800236813F4804F19D0D4F8B030B3F1005FD6
:1019180054D047D843B1B3F1805F40D1012104F1DD
:101928000800FFF765FD0546002D4ED1574A936D17
:1019380023F0E043D4F8B0100B439365236813F405
:10194800004F51D0236FB3F1805F40D0B3F1005FF7
:1019580055D0002B40D00126354645E0002104F142
:101968002800FFF7C9FD0546A5E72E46ACE7012686
:101978003546C5E7B3F5802FB9D0B3F5A02FB6D05B
:10198800B3F5403FB3D001263546B9E7012104F14C
:101998002800FFF7B1FD0546A9E72E46B0E7012666
:1019A8003546CBE7B3F1804FBED0B3F1A04FBBD0E3
:1019B800B3F1405FB8D001263546BFE7012104F1F5
:1019C8002800FFF799FD0546AEE72E46B6E72F4AF1
:1019D800D36A43F40033D362C5B92C4A136D23F09C
:1019E8004053216F0B431365236813F0807F1CD08D
:1019F800A36C032B44D8DFE803F0100B3C10012143
:101A080004F10800FFF7F4FC0546E5E72E46EBE78E
:101A18001E4AD36A43F40033D362A5BB1B4AD36C76
:101A280023F00303A16C0B43D364236813F4800FE2
:101A38002ED1236813F0010F00F0A680E36F282B46
:101A480000F2A080DFE803F08E9E9E9E9E9E9E9EE2
:101A5800889E9E9E9E9E9E9E979E9E9E9E9E9E9EBB
:101A68008E9E9E9E9E9E9E9E8E9E9E9E9E9E9E9EAE
:101A78008E00022104F10800FFF7BAFC0546CCE706
:101A880001263546D1E72E46CFE700BF004402586D
:101A9800584A136843F48073136000F0BBFF07468D
:101AA800544B1B6813F4807F05D100F0B3FFC01BB3
:101AB8006428F5D90325002D4AD14F4B1B6FD4F864
:101AC800B420534013F4407F0CD04B4B1A6F22F4D0
:101AD8004072196F41F480311967196F21F4803110
:101AE80019671A67D4F8B430B3F5807F15D08DBB69
:101AF800D4F8B43003F44072B2F5407F1ED03E4AA9
:101B0800136923F47C5313613B490B6FD4F8B42059
:101B1800C2F30B0213430B678BE700F07BFF07460A
:101B2800354B1B6F13F0020FE1D100F073FFC01BA0
:101B380041F288339842F3D90325D8E72E48026941
:101B480022F47C522D4901EA131313430361DBE7A6
:101B58002E466EE72E466CE7012104F10800FFF7D8
:101B680047FC0546E5B9244A536D23F03803E16F75
:101B78000B43536508E0012104F12800FFF7BCFC82
:101B88000546EFE701263546236813F0020F17D004
:101B9800A36F052B29D8DFE803F00B05210B0B0BEE
:101BA8002E46F1E7012104F10800FFF721FC054664
:101BB800F5B9114A536D23F00703A16F0B43536521
:101BC800236813F0040F2CD0D4F89430052B00F2BE
:101BD800DC80DFE803F01B15D31B1B1B012104F17C
:101BE8002800FFF789FC0546E2E701263546E7E7C6
:101BF8002E46E5E70048025800440258CFFFFF0090
:101C0800012104F10800FFF7F3FB0546002D40F021
:101C1800BF80B34A936D23F00703D4F894100B43A5
:101C28009365236813F0200F1DD0D4F89030B3F1DA
:101C3800005F00F0C18000F2B0804BB1B3F1805F6B
:101C480040F0A880002104F10800FFF7D1FB054609
:101C5800002D40F0B880A24A536D23F0E043D4F839
:101C680090100B435365236813F0400F1DD0D4F830
:101C78009C30B3F5006F00F0BA8000F2A9804BB138
:101C8800B3F5806F40F0A180002104F10800FFF750
:101C9800AFFB0546002D40F0B180914A936D23F4C7
:101CA800E053D4F89C100B439365236813F0800F1E
:101CB8001DD0D4F8A030B3F5804F00F0B38000F207
:101CC800A2804BB1B3F5005F40F09A80002104F187
:101CD8000800FFF78DFB0546002D40F0AA80804ADA
:101CE800936D23F46043D4F8A0100B4393652368E5
:101CF80013F0080F0DD0D4F88430B3F5805F00F0EE
:101D08009A80774A536D23F44053D4F884100B43D8
:101D18005365236813F0100F0DD0D4F89830B3F53D
:101D2800807F00F092806E4A936D23F44073D4F85C
:101D380098100B439365236813F4002F00F09A80E2
:101D4800D4F8A430B3F5803F00F08980B3F5003FA4
:101D580008D0002B40F08A80002104F10800FFF72A
:101D680047FB0546002D40F084805D4A936D23F4BF
:101D78004033D4F8A4100B4393657BE0012104F1B0
:101D88002800FFF7B9FB054640E70126354648E736
:101D98002E4646E70126354665E7B3F1804F3FF406
:101DA80057AFB3F1A04F3FF453AFB3F1405F3FF4E7
:101DB8004FAF0126354656E7022104F12800FFF708
:101DC8009BFB054644E72E464DE7012635466CE762
:101DD800B3F5805F3FF45EAFB3F5A05F3FF45AAF51
:101DE800B3F5406F3FF456AF012635465DE7022153
:101DF80004F12800FFF780FB05464BE72E4654E721
:101E08000126354673E7B3F5004F3FF465AFB3F5E8
:101E1800204F3FF461AFB3F5C04F3FF45DAF0126EB
:101E2800354664E7022104F12800FFF765FB054603
:101E380052E72E465BE7022104F12800FFF75CFB1E
:101E480000283FF45EAF01265BE7022104F1280079
:101E5800FFF752FB00283FF466AF012663E7022133
:101E680004F12800FFF748FB05467BE701263546C5
:101E780000E02E46236813F4802F18D0D4F8883059
:101E8800B3F5001F1FD0B3F5401F07D0B3F5801F6F
:101E980020D1134AD36A43F40033D362EDB9104A10
:101EA800536D23F44013D4F888100B43536523680B
:101EB80013F4803F2CD0236DA3B1B3F5803F1FD01E
:101EC8000126354624E0012104F12800FFF714FB20
:101ED8000546E3E701263546E9E72E46E7E700BF72
:101EE80000440258704AD36A43F40033D36275B988
:101EF8006D4AD36C23F48033216D0B43D36407E020
:101F0800022104F10800FFF773FA0546EFE72E46B1
:101F1800236813F0005F11D1236813F4003F28D021
:101F2800D4F88030B3F5807F14D010D9B3F5007F92
:101F380015D0B3F5407F12D001261AE0022104F132
:101F48002800FFF7D9FA0028E6D00126E4E733B1E4
:101F580001260EE0544AD36A43F40033D362002DBD
:101F680069D1514A536D23F44073D4F880100B4360
:101F78005365236813F4801F06D04B4A136D23F072
:101F88000043616F0B431365236813F0805F07D02C
:101F9800454A136923F48043D4F8B8100B431361FE
:101FA800236813F4001F06D03F4A136D23F0807393
:101FB800E16E0B431365236813F0804F09D03A4B49
:101FC8001A6922F400421A611A69D4F8BC100A434B
:101FD8001A612368002B06DA334AD36C23F0405386
:101FE800616D0B43D364236813F4000F07D02E4AA6
:101FF800536D23F44003D4F88C100B435365636886
:1020080013F0010F19D1636813F0020F1ED1636832
:1020180013F0040F23D1636813F0080F28D1636805
:1020280013F0100F2DD1636813F0200F32D106B1D1
:1020380001263046F8BD2E469BE7002104F1080032
:10204800FFF7D6F90028DED00646DCE7012104F1C7
:102058000800FFF7CDF90028D9D00646D7E70221B6
:1020680004F10800FFF7C4F90028D4D00646D2E7E7
:10207800002104F12800FFF73FFA0028CFD00646D8
:10208800CDE7012104F12800FFF736FA0028CAD06D
:102098000646C8E7022104F12800FFF72DFA0028B8
:1020A800C5D00126C5E700BF00440258F0B583B08B
:1020B80000236BE085685E000324B44025EA04052C
:1020C800CC68B4402C438460456825EA0C054C680C
:1020D800C4F300149C402C43446069E0DD080835D3
:1020E80050F8254003F0070C4FEA8C0C4FF00F0E08
:1020F8000EFA0CFE24EA0E0E0C6904FA0CF444EAFB
:102108000E0440F825406BE0092400E0002404FA9E
:102118000EF42C430CF1020C694D45F82C404FF09D
:10212800B0442568D44325EA02064F6817F4801F97
:1021380001D042EA05064FF0B0452E606D6804EA0A
:1021480005064F6817F4001F01D042EA05064FF054
:10215800B0456E60D5F8845004EA05064F6817F458
:10216800003F01D042EA05064FF0B045C5F884604B
:10217800D5F880502C404E6816F4803F01D042EAD2
:1021880005044FF0B042C2F8804001330A6832FAC1
:1021980003F400F092804FF0010C0CFA03FC1CEAE7
:1021A8000202F2D04C6804F00304013C012C81D9EE
:1021B8004C6804F00304032C0CD0C4685D004FF095
:1021C800030C0CFA05FC24EA0C0C8C68AC4044EABD
:1021D8000C04C4604C6804F00304022C3FF47EAF86
:1021E80004684FEA430E4FF0030C0CFA0EFC24EA85
:1021F8000C0C4C6804F0030404FA0EF444EA0C04D2
:1022080004604C6814F4403FBFD02E4CD4F8F4500E
:1022180045F00205C4F8F450D4F8F44004F0020480
:102228000194019C4FEA930C0CF10205244C54F8DC
:10223800255003F0030E4FEA8E0E0F2404FA0EF415
:1022480025EA0405204CA0423FF460AF04F5806401
:10225800A04222D004F58064A04220D004F5806416
:10226800A0421ED004F58064A0421CD004F580640E
:10227800A0421AD004F58064A04218D004F5806406
:10228800A04216D004F58064A04214D004F58064FE
:10229800A0423FF439AF0A2439E7012437E7022482
:1022A80035E7032433E7042431E705242FE7062420
:1022B8002DE707242BE7082429E703B0F0BD00BF6A
:1022C8000004005800440258000002580AB1816115
:1022D800704709048161704730B405686C69DFF89C
:1022E80084C004EA0C0CC3F310034CEA03036B61CB
:1022F80005686B69C3F31303029C013C43EA04536A
:102308006B6103681F245C600368DA610368996184
:1023180001F07F41002918BFB1F1005F15D10168B4
:102328008B6A43F480338B6202F07F42002A18BF25
:10233800B2F1005F0FD10268936A43F400339362ED
:10234800C26D03685A6230BC704701688B6A23F417
:1023580080338B62E8E70268936A23F40033936260
:10236800EEE700BF0000FEFFC368016902680B4387
:10237800D360436982691343C2691343026A1343F2
:10238800426A1343C26A1343026B1343826A013AD7
:1023980043EA8243816802680B4313614368B3F1DF
:1023A800804F1BD0036800225A61436B93421BDBAA
:1023B80002689BB21362836B002B20DB01680A6AF8
:1023C80042EA03430B624368B3F1804F24D00268AA
:1023D800DBB29362036800225A627047026813698D
:1023E80043F040431361DDE70268536943F48023F7
:1023F8005361436B5B4202689BB21362DBE702687E
:10240800536943F400235361836B5A4201680B6A92
:1024180043EA02430B62D6E7036800229A62D9E7CF
:1024280038B5044600F0F6FA44B30546002384F8AC
:102438003C30022384F83D302268D36823F001033E
:10244800D3602368DB6813F0010F0BD000F0E2FAC9
:10245800431B052BF5D94023A366032384F83D309D
:1024680001200AE02046FFF77FFF0020E065206694
:102478006066A066012384F83D3038BD0120FCE782
:1024880068B3034690F83C0001282AD0012083F85D
:102498003C0093F83D00C0B2012804D0012000227E
:1024A80083F83C20704730B41C68256915F0804FCC
:1024B80009D121631868426351B919680A6922F081
:1024C80000420A610020002283F83C2030BC70479B
:1024D80019680A6942F000420A610020F3E7012006
:1024E80070470220704700284FD030B583B00446AB
:1024F80090F83C0001284AD0012084F83C0094F868
:102508003D00C0B2012805D0002384F83C300220E9
:1025180003B030BD022084F83D000020A066256885
:10252800E86820F00100E860069800902046FFF770
:10253800D3FE2268D36843F00603D360E36C23B16B
:102548002268D36843F01003D360236D23B1226857
:10255800D36843F00803D360A36C23B12268D3681F
:1025680043F02003D3602268D36843F00103D360AB
:102578006368B3F1804F01D00020C9E72268D368AF
:1025880043F48033D3600020C2E701207047022063
:10259800BEE790B190F83D30DBB2022B03D0802328
:1025A800836601207047042380F83D300268D368B1
:1025B80023F00103D360002070470120704700001A
:1025C80030B583B000230193674B1D68674BA3FBAD
:1025D80005350168664B0B44C3F38413012202FAE4
:1025E80003F34FF0A44212681A4200F0A580044693
:1025F800AD0A0B6813F0010F2FD0CB6813F0020F50
:102608002BD0CB6823F00203CB600268936813F0E9
:10261800800F40F09380816E41F00101816613F4D0
:10262800007F03D0A16E41F00401A16613F4807FFE
:1026380003D0A16E41F00801A16613F4806F03D0A6
:10264800A16E41F01001A16613F4006F03D0A36ED0
:1026580043F02003A3660123536023681A6812F02D
:10266800100F09D0DA6812F0200F05D010225A6036
:10267800A36C0BB12046984723681A6812F0080F1C
:1026880009D0DA6812F0100F05D008225A60E36CFE
:102698000BB12046984723681A6812F0040F09D036
:1026A800DA6812F0080F05D004225A60236D0BB1C6
:1026B8002046984723681A6812F0020F19D0DA6882
:1026C80012F0040F15D0DA6822F03E02DA6094F8AE
:1026D8003D30DBB2042B36D0236802225A60002337
:1026E80084F83C30012384F83D30636C0BB12046FC
:1026F8009847A36E03B3042384F83D302268D36857
:1027080023F00103D360019B01330193AB4204D84A
:102718002368DB6813F0010FF5D1002384F83C30FF
:102728002368DB6813F0010F19D0032384F83D30C8
:10273800636D0BB12046984703B030BD816E41F000
:10274800020181666BE7002384F83C30012384F89A
:102758003D30A36D002BEFD020469847ECE70123CE
:1027680084F83D30E4E700BF0C000020B5814E1B23
:10277800C0FFFFAD134BDB6813F0040F07D1114BFB
:10278800DB6803F0070383421AD00120704710B5B5
:102798000C4AD36823F007030343D36000F03AF9E7
:1027A8000446084B5B6813F4005F07D100F032F968
:1027B800001BB0F57A7FF4D9012000E0002010BD9D
:1027C8000020704700480258002807DB00F01F026D
:1027D800400901239340024A42F82030704700BF65
:1027E80000E100E0002804DB0901C9B2044B1954D8
:1027F800704700F00F000901C9B2024B1954704725
:1028080000E400E014ED00E000B500F00700C0F1BE
:10281800070CBCF1040F28BF4FF0040C031D062B56
:102828000FD9C31E4FF0FF3E0EFA0CF021EA00014B
:1028380099400EFA03FE22EA0E0241EA02005DF810
:1028480004FB0023EEE700000649CB6823F4E063AD
:102858001B041B0C000200F4E0600343024A1A4305
:10286800CA60704700ED00E00000FA0510B50446A4
:10287800054BD868C0F30220FFF7C6FF0146204683
:10288800FFF7B0FF10BD00BF00ED00E008B5FFF78F
:102898009BFF08BD0138B0F1807F0BD24FF0E023D9
:1028A8005861054AF02182F8231000209861072218
:1028B8001A6170470120704700ED00E0BFF35F8F99
:1028C800044B5A6A22F480325A620022C3F89420D8
:1028D800704700BF00ED00E040F00100054BC3F871
:1028E80094005A6A42F480325A62BFF34F8FBFF3A2
:1028F8006F8F704700ED00E04378144AC2F89830B3
:10290800D2F8A03023F00103C2F8A0304368C2F81F
:102918009C30017BC37A1B0643EA0173817A43EA40
:10292800C143417B43EA8143817B43EA4143C17B05
:1029380043EA0143417A43EA0123017A43EA410326
:1029480001780B43C2F8A030704700BF00ED00E0EB
:10295800104B1B780BB90120704710B504464FF493
:102968007A70B0FBF3F30C4A1068B0FBF3F0FFF792
:1029780091FF68B90F2C01D901200AE000222146F5
:102988004FF0FF30FFF772FF044B1C60002000E09F
:10299800012010BD000000200C00002004000020D1
:1029A80010B50320FFF750FFFEF7DCFA0F498B69DB
:1029B800C3F303230E4AD35C03F01F03D8408B698B
:1029C80003F00F03D35C03F01F0320FA03F3094A53
:1029D8001360094B18600F20FFF7BAFF10B10124EC
:1029E800204610BD0446FDF753FFF9E7004402589E
:1029F800544A0008080000200C000020034B1B78F4
:102A0800034A11680B441360704700BF00000020A0
:102A180090010020014B1868704700BF900100200A
:102A280038B50446FFF7F6FF0546B4F1FF3F02D07C
:102A3800044B1B781C44FFF7EDFF401BA042FAD360
:102A480038BD00BF00000020014B1868000C70471B
:102A58000010005C036C00229A631A68136843F440
:102A6800003313607047036C0022DA621A68136837
:102A780043F4003313607047F0B44B6A33B1B2F1DA
:102A8800406F03D08B6A0468013B23618C69002C7A
:102A980075D00E6A002E3ED003688C68DC61CC6964
:102AA800F4B1CB6A0D6B2B434D6B2B434D6A2B4313
:102AB8004D6943EA85430D692B430D6A2B43CD6865
:102AC8002B4323438C6923430C6823430468134333
:102AD8006361B2F1406F1CD003684A689A6118E0DC
:102AE800CB6A0D6B2B434D6B2B434D6A2B434D69C2
:102AF80043EA85430D692B430D6A2B4323438C69B5
:102B0800234309680B43016813434B6103680022A0
:102B18009A61F0BC7047CD69D5B1CB6A0F6B3B4366
:102B28004F6B3B434F6A3B434F6943EA8743334309
:102B3800CE6833432B4323430C6823430468134371
:102B48006361B2F1406FE4D003684A689A61E0E7D4
:102B5800CB6A0F6B3B434F6B3B434F6A3B434F6919
:102B680043EA87431E4345EA0603234309680B43A8
:102B7800016813434B61036800229A61C9E70D6A33
:102B8800002D39D003688C68DC61CC69E4B1CB6A6C
:102B98000D6B2B434D6B2B434D6A2B434D6943EA19
:102BA80085430D692B430D6A2B43CD682B43234383
:102BB8008C692343046813436361B2F1406FA8D062
:102BC80003684A689A61A4E7CB6A0D6B2B434D6B87
:102BD8002B434D6A2B434D6943EA85430D692B43CB
:102BE8000D6A2B431C438B691C43036814435C61C7
:102BF800036800229A618CE7CE69CEB1CB6A0F6B6D
:102C08003B434F6B3B434F6A3B434F6943EA874320
:102C18002B43CD682B433343234304681343636139
:102C2800B2F1406F3FF475AF03684A689A6170E784
:102C3800D1F824C0BCF1000F3FF46BAFCB6A0F6B27
:102C48003B434F6B3B434CEA03074B6947EA8347D7
:102C58003D432E433443036814435C6103680022F8
:102C68009A6156E72DE9F84305460F4616469946F8
:102C7800DDF820802C68A4683C4214BF4FF0010C9A
:102C88004FF0000CB44514D0B8F1FF3FF2D0FFF775
:102C9800C1FEA0EB0900404502D8B8F1000FE9D108
:102CA800042385F841306B6C43F001036B64012009
:102CB80000E00020BDE8F8832DE9F04182B0044629
:102CC8000F461646FFF7A6FE94F840C05FFA8CFC44
:102CD800BCF1010F3CD00546012384F8403094F83C
:102CE80041C05FFA8CFC9C4508D04FF002080023D5
:102CF80084F84030404602B0BDE8F08100226264AA
:102D0800022384F841300096034620212046FFF72D
:102D1800A9FF80460028EAD1002239462046FFF75D
:102D2800ABFE7B6A1BB1012384F84130DFE70096D4
:102D38002B46012202212046FFF794FF80460028F7
:102D4800D5D123680222DA60012384F84130CEE726
:102D58004FF00208CEE7000070B582B00446006864
:102D6800026994F84030DBB2012B00F08B8001320D
:102D7800012384F8403094F84150EDB29D4206D0CA
:102D8800002384F840300225284602B070BD002395
:102D9800636400296ED0E262122384F84130032371
:102DA800C360E36AA36261622268536923F04063E7
:102DB8005361E36B344A5A64E36B344A5A65E36BF4
:102DC80000229A65E36B1A681069314B034013615E
:102DD800E26BD36903BB12681069A3F54173034022
:102DE80043F00203136100262268136843F480331A
:102DF80013602268136843F0040313602268A36A0F
:102E0800012000902032E06BFFF76DFB10BB002320
:102E180084F840303546B7E7102B07D0202B0FD069
:102E2800636C43F0040363642E46DDE7126810699F
:102E3800A3F54573034043F4817313610026D3E778
:102E480010680369134A1A4040F2022313430361CE
:102E58000026C9E72268136823F004031360636C33
:102E680043F004036364012384F84130002384F8A9
:102E7800403089E7636C43F008036364002384F8F7
:102E8800403081E702257FE76F2A0008B533000844
:102E9800F3F3FFFFFCFCFFFF70B582B00446006847
:102EA8008269066994F84030DBB2012B00F091800A
:102EB8000136012384F8403094F84150EDB29D4228
:102EC80006D0002384F840300225284602B070BDA1
:102ED80000236364002974D0A663222384F8413058
:102EE8000323C360A36B63632163E36B3A485864AD
:102EF800E36B3A485865E36B00209865E36B186804
:102F08000669374B33400361E06B036A5BBB0068BB
:102F18000669A3F60D43334043F008030361002616
:102F28002068436923F0406343F08063436123686A
:102F38009A612268136843F4803313602268136827
:102F480043F0040313602068636B012200920A4671
:102F580000F12001E06BFFF7C6FA10BB002384F8EC
:102F680040303546B1E7402B07D0802B0FD0636C3B
:102F780043F0040363642E46D2E700680669A3F6AB
:102F88004D43334043F4816303610026C8E7066874
:102F980033691448184040F6080303433361002698
:102FA800BEE72268136823F004031360636C43F0E0
:102FB80004036364012384F84130002384F840301B
:102FC80083E7636C43F008036364002384F84030AC
:102FD8007BE7022579E700BF5D2A0008B5330008C2
:102FE800FCFCFFFFF3F3FFFF2DE9F04182B004463C
:102FF800884615461F46FFF70DFD94F840C05FFA56
:103008008CFCBCF1010F48D00646012384F84030FF
:1030180094F841C05FFA8CFC9C4506D0022000233E
:1030280084F8403002B0BDE8F08100226264422397
:1030380084F841300097034620212046FFF712FE0E
:103048000028ECD123682A689A6223686A685A6261
:103058002368AA68DA622268136823F4400329699E
:103068000B4343F480031360EB68C8F828304FF033
:10307800006241462046FFF7FFFC009733460122D5
:1030880008212046FFF7EEFD0028C8D12368082252
:10309800DA60012384F84130C1E70220C2E708B5AD
:1030A800006C00238363C36290F84130DBB2082BC5
:1030B8000DD103680222DA600268136843F4003312
:1030C80013600268136843F00203136008BD01230C
:1030D80080F8413000F080FFF8E77047704770478C
:1030E8007047000010B5044603689A68196812F022
:1030F800040F3FD011F4802F3CD090F84120D2B279
:10310800122A12D090F84120D2B2222A1FD020468B
:10311800FFF7E4FF10BD626A127883F82020626A24
:1031280001326262E26A013AE2622268916811F051
:10313800040FECD0E16A0029EDD1136823F4802351
:103148001360E4E7136823F480231360DFE7226841
:10315800916811F0040FDAD0A16B0029F2D0226B2C
:1031680093F820101170226B01322263A26B013A8E
:10317800A263ECE712F0020F76D011F4003F73D08F
:103188000222DA602268136823F4E023136094F8BB
:103198004130DBB2122B1DD094F84130DBB2222B28
:1031A8002ED094F84130DBB2022B52D094F8413043
:1031B800DBB2082BAED12268536923F04063536118
:1031C800012384F84130636C002B49D12046FFF776
:1031D80084FF9FE723681A6812F0040F09D01A6861
:1031E80022F004021A60E36B1A68D36823F0010323
:1031F800D360012384F84130204600F0E1FE89E7DE
:1032080021680B6813F0040F10D00B6823F0040337
:103218000B60E36B1A68D36823F00103D3600123C2
:1032280084F84130204600F0BBFE73E723689B68B2
:1032380013F47C5FF3D0A36B002BF0D0236B91F8D1
:1032480020201A70236B01332363A36B013BA36314
:10325800ECE7012384F84130204600F095FE59E759
:10326800204600F0B9FE55E712F0080F14D011F40B
:10327800002F11D00822DA6023681A6812F4800F30
:1032880006D01A6822F410221A60012384F841300B
:103298002046FFF724FF3DE712F0010F31D011F46B
:1032A800803F2ED00122DA602268136823F470234D
:1032B8001360636C43F00203636423681A6812F0B6
:1032C800040F17D01A6822F004021A60E36B144A3C
:1032D8009A65E06BFFF75DF900283FF41BAF636C5C
:1032E80043F004036364012384F84130204600F06E
:1032F80073FE0FE7012384F84130204600F06CFE8E
:1033080008E712F0100F3FF405AF11F4801F3FF4E7
:1033180001AF1022DA602046FFF7E2FEFAE600BFAE
:10332800A730000890F8413013F0020F3AD010B5DA
:103338000446002380F84030082380F841300268B2
:10334800136823F4F813136003681A6812F0040F63
:1033580011D19A6812F0200F20D00222DA60026898
:10336800136843F4003313600268136843F00203E0
:103378001360002010BD1A6822F004021A60C36BA3
:10338800094A9A65C06BFFF704F90028F1D00123B8
:1033980084F841302046FFF7A0FEEAE7012380F8D1
:1033A8004130E6E700207047A730000808B5006CF8
:1033B80000238363C362436C43F0040343640268DD
:1033C800136823F004031360FFF7ACFF08BD8164A2
:1033D8007047000070B582B00446FFF71BFB002C55
:1033E80045D0064694F84130002B37D025682A6826
:1033F80022F4F852A168013942EA01222A60A36C3A
:1034080000933346002220212046FFF72BFC18BBEF
:1034180021680B68174A1A406568E36843EA056340
:10342800E5692B43256A2B431A430A6021684A68D9
:10343800114B13402569626942EA0542A5692A438E
:1034480013434B602268136843F0010313600023A1
:103458006364012384F8413002B070BD2046FDF753
:10346800D7F841F288312046FFF7B1FFBEE70120C7
:10347800F2E700BF2FFFFF00FEF8E0FF10B4036A79
:10348800046A24F001040462846924F0F00C4CEA14
:10349800021223F00A030B43826103625DF8044BB6
:1034A800704710B4036A046A24F010040462846943
:1034B80024F4704C4CEA023223F0A00343EA0113CF
:1034C800826103625DF8044B704700008268034B19
:1034D80013400B4343F00703836070478FFFCFFF10
:1034E80090F83D30DBB2012B35D1022380F83D3016
:1034F80003681B4AB3F1804F18BF93421DD0A2F551
:103508007C42934219D002F58062934215D002F5AD
:103518008062934211D002F5784293420DD0A2F511
:103528006C42934209D002F59432934205D01A684E
:1035380042F001021A60002070479968094A0A405F
:10354800062A18BFB2F5803F07D01A6842F0010278
:103558001A6000207047012070470020704700BFA4
:10356800000001400700010070B40368394A904226
:1035780014BF00220122B0F1804F14BF144642F05C
:103588000104ACB9344DA84214BF00250125334EBF
:10359800B0420DD065B905F1804505F58235A842E0
:1035A80014BF0025012506F50066B04200D01DB104
:1035B80023F070034D682B4314BB274CA04214BF63
:1035C80000240124254DA8421AD0CCB904F1804426
:1035D80004F58234A04214BF0024012405F50065D7
:1035E800A8420DD064B91E4CA04214BF0024012487
:1035F80005F59A35A84203D014B91A4CA04203D154
:1036080023F44073CC68234323F080034C6923439D
:103618008C68C4620C688462134CA04208BF42F0F4
:10362800010262B90E4A904214BF0022012204F539
:103638007054A04203D012B90A4A904201D10A69D3
:103648000263026842F004020260012242610360E0
:1036580070BC7047000001400008004000040040B2
:1036680000440140004801400004014060B310B527
:10367800044690F83D3013B3022384F83D302146C8
:1036880051F8040BFFF770FF012384F8483084F8E1
:103698003E3084F83F3084F8403084F8413084F874
:1036A800423084F8433084F8443084F8453084F854
:1036B800463084F8473084F83D30002010BD80F84B
:1036C8003C30FDF7B1F8D7E70120704710B48468A3
:1036D80024F47F4C42EA03220A4342EA0C02826045
:1036E8005DF8044B7047000090F83C30012B00F067
:1036F8008F8010B50446012380F83C30022380F8FF
:103708003D3002689068434B034093600B68702B10
:1037180055D031D8502B6CD01FD8402B0AD1CA684D
:1037280049682068FFF7AAFE40212068FFF7CEFE0F
:10373800002029E068D8202B03D00AD80BB1102B21
:1037480005D119462068FFF7C1FE00201CE00120C2
:103758001AE0302BF5D0012016E0602B0AD1CA6898
:1037680049682068FFF79DFE60212068FFF7AEFEDC
:10377800002009E0012007E0B3F5005F2CD00AD84B
:10378800B3F5805F42D10020012384F83D30002347
:1037980084F83C3010BD204A9342D2D007D8B3F504
:1037A800801FCED0B3F1101FCBD00120ECE71B4A0D
:1037B8009342C6D010329342C3D00120E4E7CB68CD
:1037C8004A6889682068FFF781FF2268936843F098
:1037D800770393600020D7E7CB684A688968206838
:1037E800FFF774FF2268936843F4804393600020D6
:1037F800CAE7CA6849682068FFF740FE5021206878
:10380800FFF764FE0020BFE70120BDE70120BBE70A
:10381800022070478800CEFF200010003000100002
:1038280090F83C20012A45D070B40346012280F864
:103838003C20022280F83D200268506894681E4EA1
:103848001E4DAA4218BFB24203D120F470004D6841
:10385800284320F070000D68284350601A68164805
:10386800B2F1804F18BF824217D0A0F57C40824247
:1038780013D000F5806082420FD000F5806082424C
:103888000BD000F57840824207D0A0F56C40824208
:1038980003D000F59430824204D124F08004896872
:1038A80021439160012283F83D20002083F83C00E9
:1038B80070BC7047022070470000014000040140BE
:1038C800314AD2F8883043F47003C2F888302F4B5D
:1038D8001B6803F00F03062B06D82C4A136823F045
:1038E8000F0343F007031360294B1A6842F00102E3
:1038F8001A6000221A611968264A0A401A60234B86
:103908001B6813F0080F06D0204A136823F00F0332
:1039180043F0070313601E4B00229A61DA611A62B2
:103928001D4999621D49D9621D4919635A639963F2
:10393800DA6319645A64196821F4802119601A66D7
:10394800184B1B686FF30F03B3F1005F03D2164BDC
:103958000122C3F808210E4BD3F8D43013F4805F4A
:1039680010D10B4BD3F8D42042F48052C3F8D420A2
:103978000E4A43F2D2011160D3F8D42022F48052C7
:10398800C3F8D420704700BF00ED00E000200052CB
:10399800004402587FEDF6EA000202020000FF012F
:1039A800800201010010005C0080005100400052BC
:1039B800054AD36843F00203D360034B5B6813F4F2
:1039C800005FFAD0704700BF0048025810B50346A0
:1039D8000C4A0D490D48006840B10C480068034482
:1039E800521A934206D8094A136010BD0748084C7A
:1039F8000460F2E700F0B0FD0C2303604FF0FF30E5
:103A0800F3E700BF0000022000200100940100201D
:103A1800E802002070B50C461646002506E0AFF314
:103A28000080214601F8010B01350C46B542F6DB52
:103A3800304670BD4FF0FF3070474FF400534B6075
:103A480000207047012070470020704738B50446B1
:103A5800FEF7E0FF0546084B1B7833B9002CFAD077
:103A6800FEF7D8FF401BA042F5D9034B1B780BB1DA
:103A7800002038BD0120FCE7100000204FF48073BF
:103A880083614FF44063C3614FF40053C3604FF048
:103A98004073436200230362C36203634363436169
:103AA8007047000010B58EB038220021684600F03B
:103AB80005FD6846FFF7E2FF66230093002307939E
:103AC8000993164B1B78002BFBD041F288326946CC
:103AD8001348FFF7F1F818B1012420460EB010BDC5
:103AE8000120FEF79DFF6846FFF7C8FF9923009362
:103AF800002307930993094B1B78002BFBD041F255
:103B0800883269460648FFF7D7F8044608B1012409
:103B1800E3E70120FEF784FFDFE700BF1100002084
:103B2800F800002010B58EB00446382200216846FF
:103B380000F0C4FC6846FFF7A1FF9F2300934FF0F5
:103B48008073099300230793019303220A92059334
:103B58000F4B1B78002BFBD000230D4A13700D4A26
:103B6800137041F2883269460B48FFF7A5F818B17F
:103B7800012420460EB010BD21460748FFF78CF9F6
:103B8800044608B10124F4E7FFF760FFF1E700BF3E
:103B98001100002010000020F800002010B58EB0A1
:103BA800044638220021684600F088FC6846FFF782
:103BB80065FF5A2300934FF0807309934FF4806395
:103BC80007934FF400530393002301934FF480733A
:103BD8000A93082305930F4B1B78002BFBD0002377
:103BE8000C4A13700C4A137041F2883269460B482C
:103BF800FFF762F818B1012420460EB010BD214627
:103C08000648FFF749F9044608B10124F4E7FFF72D
:103C18001DFFF1E71100002010000020F80000202F
:103C280000B58FB038220021684600F047FC68468E
:103C3800FFF724FF06230093002309930793084BFB
:103C48001B78002BFBD041F2883269460548FFF704
:103C580033F810B90FB05DF804FB0120FAE700BF94
:103C680011000020F800002010B58EB0044638225C
:103C78000021684600F022FC6846FFF7FFFE052396
:103C880000934FF0807309930023079303930193E4
:103C980001230A930F4B1B78002BFBD000230D4AFE
:103CA80013700D4A137041F2883269460B48FFF7CA
:103CB80003F818B1012420460EB010BD214607486C
:103CC800FFF7EAF8044608B10124F4E7FFF7BEFE5F
:103CD800F1E700BF1100002010000020F8000020CC
:103CE80010B58EB0044638220021684600F0E6FB85
:103CF8006846FFF7C3FE352300934FF0807309939E
:103D0800002307930393019301230A930F4B1B7816
:103D1800002BFBD000230D4A13700D4A137041F29B
:103D2800883269460B48FEF7C7FF18B101242046C0
:103D38000EB010BD21460748FFF7AEF8044608B19B
:103D48000124F4E7FFF782FEF1E700BF110000202D
:103D580010000020F800002010B58EB0044638226C
:103D68000021684600F0AAFB6846FFF787FE152386
:103D780000934FF0807309930023079303930193F3
:103D880001230A930F4B1B78002BFBD000230D4A0D
:103D980013700D4A137041F2883269460B48FEF7DA
:103DA8008BFF18B1012420460EB010BD21460748EC
:103DB800FFF772F8044608B10124F4E7FFF746FE5E
:103DC800F1E700BF1100002010000020F8000020DB
:103DD80000B595B03822002106A800F06FFB06A8B0
:103DE800FFF74CFE0523069300230D934FF08072D6
:103DF8000F920122019200930493039210230293DD
:103E08004FF480030593084B1B78002BFBD0074B1E
:103E18006A4606A90648FFF7E7F810B915B05DF835
:103E280004FB0120FAE700BF11000020A086010072
:103E3800F800002010B590B08DF807003822002156
:103E480002A800F03BFBFFF7EBFE18B10124204667
:103E580010B010BD02A8FFF711FE312302934FF0F6
:103E680080730B93002309930593039301230C9309
:103E78000E4B1B78002BFBD000230C4A13700C4A06
:103E8800137041F2883202A90A48FEF715FF08B1FB
:103E98000124DCE70DF107010648FEF75DFF044643
:103EA80008B10124D3E7FFF793FFD0E71100002002
:103EB80010000020F800002008B500224021024828
:103EC800FEF704FA08BD00BF0018025808B5012221
:103ED80040210248FEF7FAF908BD00BF0018025851
:103EE80010B5C0B00620FEF79BFDFFF7E5FFFFF712
:103EF800D9FD034640B10124204640B010BDFF2241
:103F08000DF803200133DBB2032BF8D16846FFF725
:103F180045FE60BB9DF80030532B18D0532B28D199
:103F28009DF80230462B26D19DF80530442B24D12C
:103F38009DF80730502B22D16846FFF7F3FD044661
:103F4800F8B99DF80030EF2B0ED00124D4E79DF886
:103F58000120462AE2D19DF80220442ADED19DF8AC
:103F68000320502ADAD1E7E7FFF7B0FFC4E70124BE
:103F7800C2E70124C0E70124BEE70124BCE701240D
:103F8800BAE70124B8E70000034B834200D070472A
:103F9800024B01221A70FAE7F800002011000020F5
:103FA800044B834200D070470123034A1370034A2D
:103FB8001370F8E7F800002011000020100000201E
:103FC800034B834200D07047024B01221A70FAE774
:103FD800F800002011000020064B834200D07047F3
:103FE800054BFF221A70054B1B78002BF7D1034BAA
:103FF8001A70F4E7F80000201100002010000020DB
:1040080010B50446012210211948FEF75FF9642013
:10401800FEF706FD4CB9002210211548FEF756F9A7
:104028004FF4FA70FEF7FCFC10BD114C0022102171
:104038002046FEF74BF9C820FEF7F2FC01221021BA
:104048002046FEF743F96420FEF7EAFC002210211F
:104058002046FEF73BF9C820FEF7E2FC01221021BA
:104068002046FEF733F96420FEF7DAFCD3E700BFF9
:1040780000100258DFF838D0FFF79AFCFFF720FC51
:104088000C480D490D4A002302E0D458C4500433AB
:10409800C4188C42F9D30A4A0A4C002301E0136081
:1040A8000432A242FBD300F05DFAFCF7C5F9704771
:1040B8000000022000000020700000206C4A000868
:1040C80070000020E4020020FEE70000002310B585
:1040D8000446C0E90033C0E9043383608181436644
:1040E800C2818361194608225C3000F0E7F90D4B64
:1040F80063620D4BA3620D4BE3620D4B23630D4BC3
:1041080024629C4206D003F16802944202D0D03364
:104118009C4205D104F15800BDE8104000F046BAB1
:1041280010BD00BF15430008374300086F4300085F
:104138009343000898010020024A0349034800F00D
:1041480069B800BF14000020B5480008240000200A
:1041580041680C4B994210B5044601D000F0A6FB0B
:10416800A168094B994202D0204600F09FFBE16804
:10417800064B994204D02046BDE8104000F096BB9B
:1041880010BD00BF98010020000200206802002036
:1041980010B50B4B0B4C0C4A1A6020460022042128
:1041A800FFF794FF04F1680001220921FFF78EFF51
:1041B80004F1D0000222BDE810401221FFF786BFAB
:1041C800D00200209801002041410008014800F079
:1041D800EEB900BFD9020020014800F0E9B900BFDC
:1041E800D902002010B50446FFF7F0FF236A1BB17F
:1041F800BDE81040FFF7F0BF044B2362044B1B6877
:10420800002BF5D1FFF7C4FFF2E700BF59410008C2
:10421800D00200202DE9F8430746884614460026B8
:10422800D4E90195B9F1010905D52468002CF7D125
:104238003046BDE8F883AB89012B07D9B5F90E30B4
:10424800013303D029463846C04706436835E9E7B5
:10425800036A70B5846805460E460BB9FFF7C2FFBE
:10426800636EDB0705D4A389980502D4A06D00F01E
:104278009EF9A389190702D52369002B35D1214658
:10428800284600F0C5F880B34FF0FF35636EDA07B3
:1042980005D4A3899B0502D4A06D00F089F92846AE
:1042A80070BD002B04DAA2699A4217DC0A2915D0DE
:1042B80023685A1C22601970A36816F8011F013B75
:1042C800A3600029EDD1002B11DA22460A212846E5
:1042D80000F05FF80130D7D00A25D7E722462846F4
:1042E80000F057F80130E7D1CEE7013EE4E7236854
:1042F8005A1C22600A221A70EEE70000024B01469F
:104308001868FFF7A5BF00BF2000002010B50C46B5
:10431800B1F90E1000F0FCF80028ABBF636DA3895B
:104328001B1823F48053ACBF6365A38110BD2DE92E
:10433800F0411F468B89DB0505460C46164605D518
:10434800B1F90E100223002200F0D0F8A389B4F9C5
:104358000E1023F48053A38132463B462846BDE81D
:10436800F04100F0E7B810B50C46B1F90E1000F0B6
:10437800BDF8431CA38915BF606523F4805343F43B
:104388008053A38118BFA38110BDB1F90E1000F0AE
:104398009DB8F8B50E461446054618B1036A0BB920
:1043A800FFF720FFA369A360A3891A0701D5236932
:1043B80043B92146284600F02BF818B14FF0FF37D3
:1043C8003846F8BD23682269981A6369F6B28342B1
:1043D800374605DC2146284600F068FA0028EDD16A
:1043E800A368013BA36023685A1C22601E7062699F
:1043F800431C9A4204D0A389DB07E1D50A2EDFD1FA
:104408002146284600F052FA0028D9D0D6E7000005
:1044180038B5294B054618680C4618B1036A0BB91C
:10442800FFF7E0FEB4F90C30190722D4DA0607D4F6
:1044380009222A6043F04003A3814FF0FF3033E0A4
:10444800580712D5616B41B104F14403994202D077
:10445800284600F0AFF800236363A38923F0240300
:10446800A3810023636023692360A38943F00803C1
:10447800A38123694BB9A38903F42073B3F5007FA3
:1044880003D02146284600F05FFAB4F90C3013F047
:1044980001020AD00022A26062695242A261226926
:1044A80042B913F08000C5D138BD990758BF626979
:1044B800A260F4E70020F7E720000020024403464A
:1044C800934200D1704703F8011BF9E738B5064D50
:1044D8000023044608462B60FFF7ACFA431C02D1C0
:1044E8002B6803B1236038BDD402002038B5074DCE
:1044F80004460846114600222A601A46FFF7A4FA25
:10450800431C02D12B6803B1236038BDD4020020BC
:1045180038B5074D04460846114600222A601A4657
:10452800FFF778FA431C02D12B6803B1236038BD2A
:10453800D402002038B5074D04460846114600222B
:104548002A601A46FBF707FF431C02D12B6803B108
:10455800236038BDD4020020014B1868704700BFA3
:104568002000002070B50D4D0D4C641BA4100026D2
:10457800A64209D10B4D0C4C00F054FA641BA41050
:104588000026A64205D170BD55F8043B9847013670
:10459800EEE755F8043B98470136F2E7644A00080D
:1045A800644A0008644A0008684A0008704770476F
:1045B8007047000038B50546002941D051F8043C41
:1045C8000C1F002BB8BFE41800F0E0F81D4A136870
:1045D80033B9636014602846BDE8384000F0DCB8A1
:1045E800A34208D9206821188B4201BF19685B686B
:1045F80009182160EDE71A465B680BB1A342FAD9A6
:1046080011685018A0420BD1206801445018834209
:104618001160E0D118685B68536008441060DAE7FD
:1046280002D90C232B60D6E7206821188B4204BFDF
:1046380019685B68636004BF091821605460CAE7A1
:1046480038BD00BFE002002070B50F4E0C4631683F
:10465800054611B900F0D6F930602146284600F029
:10466800D1F9431C03D14FF0FF34204670BDC41C60
:1046780024F00304A042F8D0211A284600F0C2F919
:104688000130F2D1EFE700BFDC0200202DE9F8434A
:10469800CD1C25F0030508350C2D38BF0C25002D41
:1046A800064601DBA94204D90C2333600020BDE88B
:1046B800F883DFF8D48000F069F8D8F800301C4699
:1046C80044BB29463046FFF7BFFF431C044658D178
:1046D800D8F800402746002F43D1002C4BD0236840
:1046E8003946304604EB030900F08CF9814542D184
:1046F80021686D1A29463046FFF7A6FF01303AD0E7
:1047080023682B442360D8F800305A6862BBC8F885
:1047180000700FE02268521B20D40B2A17D96119A8
:10472800A342256018BF5960636808BFC8F8001025
:1047380062514B60304600F02FF804F10B00231D46
:1047480020F00700C21A1CBF1B1AA350AFE762680B
:10475800A3420CBFC8F800205A60EBE72346646800
:10476800AEE73C467F68B6E71A465B68A342FBD1D2
:1047780000235360DEE70C233360304600F00CF86A
:1047880094E70560D6E700BFE00200200148FFF784
:104798000EBF00BFD80200200148FFF709BF00BFC5
:1047A800D8020020B1F90C202DE9F0411607054682
:1047B8000C4654D44B68002B02DC0B6C002B48DDF4
:1047C800E66A002E45D0002312F480522F68216A31
:1047D8002B6030D0626DA389590705D56368D21A5A
:1047E800636B0BB1236CD21A0023E66A216A284650
:1047F800B047431CA38906D129681D292BD82A4A0A
:10480800CA40D60727D500226260D90422692260EF
:1048180004D5421C01D12B6803B96065616B2F6018
:10482800B9B104F14403994202D02846FFF7C2FE09
:10483800002363630DE001232846B0470246501C5D
:10484800C9D12B68002BC6D01D2B01D0162B1ED129
:104858002F60002022E043F040031BB21BE00F69E9
:10486800002FF6D093070E6808BF4B690F6018BF7A
:104878000023A6EB07088B60B8F1000FE9DD216A79
:10488800A66A43463A462846B047002808DCB4F9E9
:104898000C3043F04003A3814FF0FF30BDE8F081B6
:1048A8000744A8EB0008E7E70100402038B50B698A
:1048B80005460C4613B90025284638BD18B1036AC9
:1048C8000BB9FFF78FFCB4F90C30002BF3D0626EF4
:1048D800D00704D4990502D4A06DFFF768FE2846D6
:1048E8002146FFF75FFF636EDA070546E4D4A38924
:1048F8009B05E1D4A06DFFF75BFEDDE770B50C46C4
:10490800B1F90E10002996B015461E460DDAA38996
:1049180013F0800F4FF0000114BF40234FF4806361
:10492800002031602B6016B070BD6A4600F048F870
:104938000028ECDB019901F47041A1F500535942BC
:1049480059414FF48063EBE78B89F7B59D0706461D
:104958000C4607D504F147032360236101236361F3
:1049680003B0F0BD01AB6A46FFF7C8FF009F0546DC
:1049780039463046FFF78AFE48B9B4F90C309A0533
:10498800EED423F0030343F00203A381E2E7A389F3
:10499800206043F08003A381019BC4E904075BB155
:1049A800B4F90E10304600F01DF828B1A38923F0A1
:1049B800030343F00103A381A3891D43A581CFE726
:1049C80038B5074D00230446084611462B60FFF70B
:1049D80034F8431C02D12B6803B1236038BD00BFF3
:1049E800D402002038B5064D0023044608462B6043
:1049F800FFF728F8431C02D12B6803B1236038BDA8
:104A0800D402002038B5064D0023044608462B6022
:104A1800FEF7DCFF431C02D12B6803B1236038BDCD
:104A2800D4020020F8B500BFF8BC08BC9E46704709
:0C4A3800F8B500BFF8BC08BC9E467047F3
:104A440068656C6C6F20537068656E696B610000FB
:104A54000000000001020304010203040607080920
:044A6400BD02000887
:044A680099020008A7
:104A6C0001000000100000000090D0030090D00363
:104A7C00010100000000000003000000980100206C
:104A8C0024000020000000009801002000020020FB
:104A9C006802002000000000000000000000000080
:104AAC0000000000000000000000000000000000FA
:104ABC0000000000000000000000000000000000EA
:104ACC0000000000000000000000000000000000DA
:040000050800407D32
:00000001FF
